{"abi":[{"type":"function","name":"APPROVER_ROLE","inputs":[],"outputs":[{"name":"","type":"bytes32","internalType":"bytes32"}],"stateMutability":"view"},{"type":"function","name":"DEFAULT_ADMIN_ROLE","inputs":[],"outputs":[{"name":"","type":"bytes32","internalType":"bytes32"}],"stateMutability":"view"},{"type":"function","name":"POOL_MANAGER_ROLE","inputs":[],"outputs":[{"name":"","type":"bytes32","internalType":"bytes32"}],"stateMutability":"view"},{"type":"function","name":"SYSTEM_ROLE","inputs":[],"outputs":[{"name":"","type":"bytes32","internalType":"bytes32"}],"stateMutability":"view"},{"type":"function","name":"UPGRADE_INTERFACE_VERSION","inputs":[],"outputs":[{"name":"","type":"string","internalType":"string"}],"stateMutability":"view"},{"type":"function","name":"activateLoan","inputs":[{"name":"_loanId","type":"bytes32","internalType":"bytes32"}],"outputs":[],"stateMutability":"nonpayable"},{"type":"function","name":"borrowerLatestLoanId","inputs":[{"name":"","type":"address","internalType":"address"}],"outputs":[{"name":"","type":"bytes32","internalType":"bytes32"}],"stateMutability":"view"},{"type":"function","name":"createLoan","inputs":[{"name":"_loanId","type":"bytes32","internalType":"bytes32"},{"name":"_borrower","type":"address","internalType":"address"},{"name":"_amount","type":"uint256","internalType":"uint256"},{"name":"_interestRate","type":"uint256","internalType":"uint256"},{"name":"_repaymentRemainingMonths","type":"uint256","internalType":"uint256"}],"outputs":[],"stateMutability":"nonpayable"},{"type":"function","name":"createLoanWithVerifiedDscr","inputs":[{"name":"_loanId","type":"bytes32","internalType":"bytes32"},{"name":"_borrower","type":"address","internalType":"address"},{"name":"_amount","type":"uint256","internalType":"uint256"},{"name":"_repaymentRemainingMonths","type":"uint256","internalType":"uint256"}],"outputs":[],"stateMutability":"nonpayable"},{"type":"function","name":"createLoanWithZkFetchDscr","inputs":[{"name":"_loanId","type":"bytes32","internalType":"bytes32"},{"name":"_borrower","type":"address","internalType":"address"},{"name":"_amount","type":"uint256","internalType":"uint256"},{"name":"_repaymentRemainingMonths","type":"uint256","internalType":"uint256"}],"outputs":[],"stateMutability":"nonpayable"},{"type":"function","name":"getBorrowerLatestVerifiedLoan","inputs":[{"name":"_borrower","type":"address","internalType":"address"}],"outputs":[{"name":"","type":"bytes32","internalType":"bytes32"}],"stateMutability":"view"},{"type":"function","name":"getLoanOutstanding","inputs":[{"name":"_loanId","type":"bytes32","internalType":"bytes32"}],"outputs":[{"name":"outstandingPrincipal","type":"uint256","internalType":"uint256"},{"name":"outstandingInterest","type":"uint256","internalType":"uint256"}],"stateMutability":"view"},{"type":"function","name":"getNextRepayment","inputs":[{"name":"_loanId","type":"bytes32","internalType":"bytes32"}],"outputs":[{"name":"","type":"uint256","internalType":"uint256"},{"name":"","type":"uint256","internalType":"uint256"}],"stateMutability":"view"},{"type":"function","name":"getRoleAdmin","inputs":[{"name":"role","type":"bytes32","internalType":"bytes32"}],"outputs":[{"name":"","type":"bytes32","internalType":"bytes32"}],"stateMutability":"view"},{"type":"function","name":"getVerifiedDscrResult","inputs":[{"name":"_loanId","type":"bytes32","internalType":"bytes32"}],"outputs":[{"name":"","type":"tuple","internalType":"struct IProofVerifier.DscrResult","components":[{"name":"loanId","type":"bytes32","internalType":"bytes32"},{"name":"dscrValue","type":"uint256","internalType":"uint256"},{"name":"interestRate","type":"uint256","internalType":"uint256"},{"name":"inputHash","type":"bytes32","internalType":"bytes32"},{"name":"timestamp","type":"uint256","internalType":"uint256"},{"name":"verified","type":"bool","internalType":"bool"}]}],"stateMutability":"view"},{"type":"function","name":"getZkFetchDscrResult","inputs":[{"name":"_loanId","type":"bytes32","internalType":"bytes32"}],"outputs":[{"name":"dscrValue","type":"uint256","internalType":"uint256"},{"name":"interestRate","type":"uint256","internalType":"uint256"},{"name":"proofHash","type":"bytes32","internalType":"bytes32"},{"name":"verifiedAt","type":"uint256","internalType":"uint256"}],"stateMutability":"view"},{"type":"function","name":"grantRole","inputs":[{"name":"role","type":"bytes32","internalType":"bytes32"},{"name":"account","type":"address","internalType":"address"}],"outputs":[],"stateMutability":"nonpayable"},{"type":"function","name":"handleNotice","inputs":[{"name":"noticeType","type":"string","internalType":"string"},{"name":"borrower","type":"address","internalType":"address"},{"name":"data","type":"bytes","internalType":"bytes"}],"outputs":[],"stateMutability":"nonpayable"},{"type":"function","name":"hasBorrowerTransactions","inputs":[{"name":"_borrower","type":"address","internalType":"address"}],"outputs":[{"name":"","type":"bool","internalType":"bool"}],"stateMutability":"view"},{"type":"function","name":"hasRole","inputs":[{"name":"role","type":"bytes32","internalType":"bytes32"},{"name":"account","type":"address","internalType":"address"}],"outputs":[{"name":"","type":"bool","internalType":"bool"}],"stateMutability":"view"},{"type":"function","name":"hasVerifiedDscr","inputs":[{"name":"_loanId","type":"bytes32","internalType":"bytes32"}],"outputs":[{"name":"","type":"bool","internalType":"bool"}],"stateMutability":"view"},{"type":"function","name":"hasZkFetchVerifiedDscr","inputs":[{"name":"_loanId","type":"bytes32","internalType":"bytes32"}],"outputs":[{"name":"","type":"bool","internalType":"bool"}],"stateMutability":"view"},{"type":"function","name":"initialize","inputs":[{"name":"_owner","type":"address","internalType":"address"},{"name":"approvers","type":"address[]","internalType":"address[]"},{"name":"_token","type":"address","internalType":"contract ERC20Upgradeable"}],"outputs":[],"stateMutability":"nonpayable"},{"type":"function","name":"isBorrowerVerified","inputs":[{"name":"_borrower","type":"address","internalType":"address"}],"outputs":[{"name":"","type":"bool","internalType":"bool"}],"stateMutability":"view"},{"type":"function","name":"isLoanDefaulted","inputs":[{"name":"_loanId","type":"bytes32","internalType":"bytes32"}],"outputs":[{"name":"","type":"bool","internalType":"bool"}],"stateMutability":"view"},{"type":"function","name":"loanAmounts","inputs":[{"name":"","type":"address","internalType":"address"}],"outputs":[{"name":"","type":"uint256","internalType":"uint256"}],"stateMutability":"view"},{"type":"function","name":"loanIdToActive","inputs":[{"name":"","type":"bytes32","internalType":"bytes32"}],"outputs":[{"name":"","type":"bool","internalType":"bool"}],"stateMutability":"view"},{"type":"function","name":"loanIdToAmount","inputs":[{"name":"","type":"bytes32","internalType":"bytes32"}],"outputs":[{"name":"","type":"uint256","internalType":"uint256"}],"stateMutability":"view"},{"type":"function","name":"loanIdToBorrower","inputs":[{"name":"","type":"bytes32","internalType":"bytes32"}],"outputs":[{"name":"","type":"address","internalType":"address"}],"stateMutability":"view"},{"type":"function","name":"loanIdToDefaulted","inputs":[{"name":"","type":"bytes32","internalType":"bytes32"}],"outputs":[{"name":"","type":"bool","internalType":"bool"}],"stateMutability":"view"},{"type":"function","name":"loanIdToInterestAmount","inputs":[{"name":"","type":"bytes32","internalType":"bytes32"}],"outputs":[{"name":"","type":"uint256","internalType":"uint256"}],"stateMutability":"view"},{"type":"function","name":"loanIdToInterestRate","inputs":[{"name":"","type":"bytes32","internalType":"bytes32"}],"outputs":[{"name":"","type":"uint256","internalType":"uint256"}],"stateMutability":"view"},{"type":"function","name":"loanIdToInterestRepaymentAmount","inputs":[{"name":"","type":"bytes32","internalType":"bytes32"}],"outputs":[{"name":"","type":"uint256","internalType":"uint256"}],"stateMutability":"view"},{"type":"function","name":"loanIdToRepaymentAmount","inputs":[{"name":"","type":"bytes32","internalType":"bytes32"}],"outputs":[{"name":"","type":"uint256","internalType":"uint256"}],"stateMutability":"view"},{"type":"function","name":"loanIdToRepaymentRemainingMonths","inputs":[{"name":"","type":"bytes32","internalType":"bytes32"}],"outputs":[{"name":"","type":"uint256","internalType":"uint256"}],"stateMutability":"view"},{"type":"function","name":"makePartialRepayment","inputs":[{"name":"_loanId","type":"bytes32","internalType":"bytes32"},{"name":"_amount","type":"uint256","internalType":"uint256"}],"outputs":[],"stateMutability":"nonpayable"},{"type":"function","name":"makeRepayment","inputs":[{"name":"_loanId","type":"bytes32","internalType":"bytes32"}],"outputs":[],"stateMutability":"nonpayable"},{"type":"function","name":"markLoanDefaulted","inputs":[{"name":"_loanId","type":"bytes32","internalType":"bytes32"}],"outputs":[],"stateMutability":"nonpayable"},{"type":"function","name":"owner","inputs":[],"outputs":[{"name":"","type":"address","internalType":"address"}],"stateMutability":"view"},{"type":"function","name":"pause","inputs":[],"outputs":[],"stateMutability":"nonpayable"},{"type":"function","name":"paused","inputs":[],"outputs":[{"name":"","type":"bool","internalType":"bool"}],"stateMutability":"view"},{"type":"function","name":"proofVerifier","inputs":[],"outputs":[{"name":"","type":"address","internalType":"contract IProofVerifier"}],"stateMutability":"view"},{"type":"function","name":"proxiableUUID","inputs":[],"outputs":[{"name":"","type":"bytes32","internalType":"bytes32"}],"stateMutability":"view"},{"type":"function","name":"relayService","inputs":[],"outputs":[{"name":"","type":"address","internalType":"address"}],"stateMutability":"view"},{"type":"function","name":"renounceOwnership","inputs":[],"outputs":[],"stateMutability":"nonpayable"},{"type":"function","name":"renounceRole","inputs":[{"name":"role","type":"bytes32","internalType":"bytes32"},{"name":"callerConfirmation","type":"address","internalType":"address"}],"outputs":[],"stateMutability":"nonpayable"},{"type":"function","name":"revokeRole","inputs":[{"name":"role","type":"bytes32","internalType":"bytes32"},{"name":"account","type":"address","internalType":"address"}],"outputs":[],"stateMutability":"nonpayable"},{"type":"function","name":"setProofVerifier","inputs":[{"name":"_proofVerifier","type":"address","internalType":"address"}],"outputs":[],"stateMutability":"nonpayable"},{"type":"function","name":"setRelayService","inputs":[{"name":"_relayService","type":"address","internalType":"address"}],"outputs":[],"stateMutability":"nonpayable"},{"type":"function","name":"supportsInterface","inputs":[{"name":"interfaceId","type":"bytes4","internalType":"bytes4"}],"outputs":[{"name":"","type":"bool","internalType":"bool"}],"stateMutability":"view"},{"type":"function","name":"token","inputs":[],"outputs":[{"name":"","type":"address","internalType":"contract ERC20Upgradeable"}],"stateMutability":"view"},{"type":"function","name":"totalLentAmount","inputs":[],"outputs":[{"name":"","type":"uint256","internalType":"uint256"}],"stateMutability":"view"},{"type":"function","name":"transferFunds","inputs":[{"name":"to","type":"address","internalType":"address"},{"name":"amount","type":"uint256","internalType":"uint256"}],"outputs":[{"name":"success","type":"bool","internalType":"bool"}],"stateMutability":"nonpayable"},{"type":"function","name":"transferOwnership","inputs":[{"name":"newOwner","type":"address","internalType":"address"}],"outputs":[],"stateMutability":"nonpayable"},{"type":"function","name":"unpause","inputs":[],"outputs":[],"stateMutability":"nonpayable"},{"type":"function","name":"updateLoanInterestRate","inputs":[{"name":"_loanId","type":"bytes32","internalType":"bytes32"},{"name":"_interestRate","type":"uint256","internalType":"uint256"}],"outputs":[],"stateMutability":"nonpayable"},{"type":"function","name":"updateLoanRepaymentRemainingMonths","inputs":[{"name":"_loanId","type":"bytes32","internalType":"bytes32"},{"name":"_repaymentRemainingMonths","type":"uint256","internalType":"uint256"}],"outputs":[],"stateMutability":"nonpayable"},{"type":"function","name":"upgradeToAndCall","inputs":[{"name":"newImplementation","type":"address","internalType":"address"},{"name":"data","type":"bytes","internalType":"bytes"}],"outputs":[],"stateMutability":"payable"},{"type":"function","name":"zkFetchDscrResults","inputs":[{"name":"","type":"bytes32","internalType":"bytes32"}],"outputs":[{"name":"dscrValue","type":"uint256","internalType":"uint256"},{"name":"interestRate","type":"uint256","internalType":"uint256"},{"name":"proofHash","type":"bytes32","internalType":"bytes32"},{"name":"verifiedAt","type":"uint256","internalType":"uint256"},{"name":"isValid","type":"bool","internalType":"bool"}],"stateMutability":"view"},{"type":"event","name":"DscrVerifiedZkFetch","inputs":[{"name":"loanId","type":"bytes32","indexed":true,"internalType":"bytes32"},{"name":"borrower","type":"address","indexed":true,"internalType":"address"},{"name":"dscrValue","type":"uint256","indexed":false,"internalType":"uint256"},{"name":"interestRate","type":"uint256","indexed":false,"internalType":"uint256"},{"name":"proofHash","type":"bytes32","indexed":false,"internalType":"bytes32"},{"name":"timestamp","type":"uint256","indexed":false,"internalType":"uint256"}],"anonymous":false},{"type":"event","name":"Initialized","inputs":[{"name":"version","type":"uint64","indexed":false,"internalType":"uint64"}],"anonymous":false},{"type":"event","name":"LoanActivated","inputs":[{"name":"loanId","type":"bytes32","indexed":false,"internalType":"bytes32"},{"name":"borrower","type":"address","indexed":false,"internalType":"address"},{"name":"amount","type":"uint256","indexed":false,"internalType":"uint256"}],"anonymous":false},{"type":"event","name":"LoanCreated","inputs":[{"name":"loanId","type":"bytes32","indexed":false,"internalType":"bytes32"},{"name":"borrower","type":"address","indexed":false,"internalType":"address"},{"name":"amount","type":"uint256","indexed":false,"internalType":"uint256"},{"name":"interestRate","type":"uint256","indexed":false,"internalType":"uint256"},{"name":"repaymentRemainingMonths","type":"uint256","indexed":false,"internalType":"uint256"}],"anonymous":false},{"type":"event","name":"LoanCreatedWithVerifiedDscr","inputs":[{"name":"loanId","type":"bytes32","indexed":false,"internalType":"bytes32"},{"name":"borrower","type":"address","indexed":false,"internalType":"address"},{"name":"amount","type":"uint256","indexed":false,"internalType":"uint256"},{"name":"dscrValue","type":"uint256","indexed":false,"internalType":"uint256"},{"name":"interestRate","type":"uint256","indexed":false,"internalType":"uint256"}],"anonymous":false},{"type":"event","name":"LoanDefaulted","inputs":[{"name":"loanId","type":"bytes32","indexed":false,"internalType":"bytes32"},{"name":"borrower","type":"address","indexed":false,"internalType":"address"},{"name":"outstandingPrincipal","type":"uint256","indexed":false,"internalType":"uint256"},{"name":"outstandingInterest","type":"uint256","indexed":false,"internalType":"uint256"}],"anonymous":false},{"type":"event","name":"LoanInterestRateUpdated","inputs":[{"name":"loanId","type":"bytes32","indexed":false,"internalType":"bytes32"},{"name":"interestRate","type":"uint256","indexed":false,"internalType":"uint256"}],"anonymous":false},{"type":"event","name":"LoanRepaymentMade","inputs":[{"name":"loanId","type":"bytes32","indexed":false,"internalType":"bytes32"},{"name":"borrower","type":"address","indexed":false,"internalType":"address"},{"name":"repaymentAmount","type":"uint256","indexed":false,"internalType":"uint256"},{"name":"interestAmount","type":"uint256","indexed":false,"internalType":"uint256"}],"anonymous":false},{"type":"event","name":"LoanRepaymentRemainingMonthsUpdated","inputs":[{"name":"loanId","type":"bytes32","indexed":false,"internalType":"bytes32"},{"name":"repaymentRemainingMonths","type":"uint256","indexed":false,"internalType":"uint256"}],"anonymous":false},{"type":"event","name":"OwnershipTransferred","inputs":[{"name":"previousOwner","type":"address","indexed":true,"internalType":"address"},{"name":"newOwner","type":"address","indexed":true,"internalType":"address"}],"anonymous":false},{"type":"event","name":"Paused","inputs":[{"name":"account","type":"address","indexed":false,"internalType":"address"}],"anonymous":false},{"type":"event","name":"ProofVerifierUpdated","inputs":[{"name":"oldVerifier","type":"address","indexed":true,"internalType":"address"},{"name":"newVerifier","type":"address","indexed":true,"internalType":"address"}],"anonymous":false},{"type":"event","name":"RelayServiceUpdated","inputs":[{"name":"oldRelay","type":"address","indexed":true,"internalType":"address"},{"name":"newRelay","type":"address","indexed":true,"internalType":"address"}],"anonymous":false},{"type":"event","name":"RoleAdminChanged","inputs":[{"name":"role","type":"bytes32","indexed":true,"internalType":"bytes32"},{"name":"previousAdminRole","type":"bytes32","indexed":true,"internalType":"bytes32"},{"name":"newAdminRole","type":"bytes32","indexed":true,"internalType":"bytes32"}],"anonymous":false},{"type":"event","name":"RoleGranted","inputs":[{"name":"role","type":"bytes32","indexed":true,"internalType":"bytes32"},{"name":"account","type":"address","indexed":true,"internalType":"address"},{"name":"sender","type":"address","indexed":true,"internalType":"address"}],"anonymous":false},{"type":"event","name":"RoleRevoked","inputs":[{"name":"role","type":"bytes32","indexed":true,"internalType":"bytes32"},{"name":"account","type":"address","indexed":true,"internalType":"address"},{"name":"sender","type":"address","indexed":true,"internalType":"address"}],"anonymous":false},{"type":"event","name":"Unpaused","inputs":[{"name":"account","type":"address","indexed":false,"internalType":"address"}],"anonymous":false},{"type":"event","name":"Upgraded","inputs":[{"name":"implementation","type":"address","indexed":true,"internalType":"address"}],"anonymous":false},{"type":"error","name":"AccessControlBadConfirmation","inputs":[]},{"type":"error","name":"AccessControlUnauthorizedAccount","inputs":[{"name":"account","type":"address","internalType":"address"},{"name":"neededRole","type":"bytes32","internalType":"bytes32"}]},{"type":"error","name":"AddressEmptyCode","inputs":[{"name":"target","type":"address","internalType":"address"}]},{"type":"error","name":"DscrNotVerified","inputs":[{"name":"loanId","type":"bytes32","internalType":"bytes32"}]},{"type":"error","name":"ERC1967InvalidImplementation","inputs":[{"name":"implementation","type":"address","internalType":"address"}]},{"type":"error","name":"ERC1967NonPayable","inputs":[]},{"type":"error","name":"EnforcedPause","inputs":[]},{"type":"error","name":"ExpectedPause","inputs":[]},{"type":"error","name":"FailedCall","inputs":[]},{"type":"error","name":"InvalidInitialization","inputs":[]},{"type":"error","name":"MustHaveApproverRole","inputs":[{"name":"account","type":"address","internalType":"address"}]},{"type":"error","name":"NotInitializing","inputs":[]},{"type":"error","name":"OwnableInvalidOwner","inputs":[{"name":"owner","type":"address","internalType":"address"}]},{"type":"error","name":"OwnableUnauthorizedAccount","inputs":[{"name":"account","type":"address","internalType":"address"}]},{"type":"error","name":"ProofVerifierNotSet","inputs":[]},{"type":"error","name":"ReentrancyGuardReentrantCall","inputs":[]},{"type":"error","name":"UUPSUnauthorizedCallContext","inputs":[]},{"type":"error","name":"UUPSUnsupportedProxiableUUID","inputs":[{"name":"slot","type":"bytes32","internalType":"bytes32"}]}],"bytecode":{"object":"0x60a060405230608052348015610013575f80fd5b50608051613e4261003a5f395f81816130290152818161305201526131910152613e425ff3fe60806040526004361061037b575f3560e01c8063715018a6116101d35780639dc788e6116100fd578063c56b68501161009d578063df6244db1161006d578063df6244db14610be8578063ebcf307014610c07578063f2fde38b14610c26578063fc0c546a14610c45575f80fd5b8063c56b685014610b60578063d547741f14610b7f578063da23f61d14610b9e578063dc5b68a614610bc9575f80fd5b8063aa43ce9c116100d8578063aa43ce9c14610aae578063ad3cb1cc14610ad9578063b74880fe14610b16578063c3efa28a14610b35575f80fd5b80639dc788e614610a3d578063a217fddf14610a7c578063a4e80d5e14610a8f575f80fd5b8063889ed68a1161017357806391d148541161014357806391d148541461099d57806394c1896a146109bc578063990dc9db146109ea5780639b9818ca14610a09575f80fd5b8063889ed68a146108e357806389cf2ed9146109175780638da5cb5b146109365780638f78e2f014610972575f80fd5b80637c38bbd3116101ae5780637c38bbd3146108635780637fa417b3146108825780638456cb59146108a15780638590aba9146108b5575f80fd5b8063715018a61461080157806375071d2a14610815578063751247f014610835575f80fd5b806336568abe116102b457806351be16a31161025457806359ee06fc1161022457806359ee06fc146107815780635c3d6a92146107a05780635c975abb146107bf5780635ed6c569146107e2575f80fd5b806351be16a31461070357806352d1902d1461072e57806356d735681461074257806359694e1414610762575f80fd5b80634245962b1161028f5780634245962b1461069c57806343f7f740146106bc5780634f1ef286146106d15780634fe9a7e3146106e4575f80fd5b806336568abe146106355780633a308585146106545780633f4ba83a14610688575f80fd5b80631833b0da1161031f578063229ac050116102fa578063229ac0501461056c578063248a9ca3146105d85780632a68416c146105f75780632f2ff15d14610616575f80fd5b80631833b0da146104eb578063183c87e71461050a5780631f1dbef114610535575f80fd5b8063066a555e1161035a578063066a555e1461040d57806308f729231461042c5780630a2d0854146104a157806310f00f9b146104cc575f80fd5b80623963541461037f57806301ffc9a7146103bd5780630596313b146103ec575b5f80fd5b34801561038a575f80fd5b506103aa610399366004613619565b60086020525f908152604090205481565b6040519081526020015b60405180910390f35b3480156103c8575f80fd5b506103dc6103d7366004613630565b610c63565b60405190151581526020016103b4565b3480156103f7575f80fd5b5061040b610406366004613657565b610c99565b005b348015610418575f80fd5b5061040b6104273660046136d0565b610e3d565b348015610437575f80fd5b50610477610446366004613619565b600e6020525f9081526040902080546001820154600283015460038401546004909401549293919290919060ff1685565b6040805195865260208601949094529284019190915260608301521515608082015260a0016103b4565b3480156104ac575f80fd5b506103aa6104bb366004613619565b60076020525f908152604090205481565b3480156104d7575f80fd5b5061040b6104e636600461374f565b610f2f565b3480156104f6575f80fd5b506103dc610505366004613619565b610f88565b348015610515575f80fd5b506103aa610524366004613619565b60056020525f908152604090205481565b348015610540575f80fd5b50600d54610554906001600160a01b031681565b6040516001600160a01b0390911681526020016103b4565b348015610577575f80fd5b5061058b610586366004613619565b61100d565b6040516103b491905f60c082019050825182526020830151602083015260408301516040830152606083015160608301526080830151608083015260a0830151151560a083015292915050565b3480156105e3575f80fd5b506103aa6105f2366004613619565b6110f9565b348015610602575f80fd5b5061040b610611366004613619565b611119565b348015610621575f80fd5b5061040b61063036600461376a565b6113c6565b348015610640575f80fd5b5061040b61064f36600461376a565b6113e8565b34801561065f575f80fd5b506103aa61066e36600461374f565b6001600160a01b03165f908152600f602052604090205490565b348015610693575f80fd5b5061040b611420565b3480156106a7575f80fd5b506103aa5f80516020613d4d83398151915281565b3480156106c7575f80fd5b506103aa600c5481565b61040b6106df3660046137dd565b611432565b3480156106ef575f80fd5b5061040b6106fe36600461387f565b611451565b34801561070e575f80fd5b506103aa61071d366004613619565b60096020525f908152604090205481565b348015610739575f80fd5b506103aa6115ad565b34801561074d575f80fd5b506103aa5f80516020613ded83398151915281565b34801561076d575f80fd5b5061040b61077c366004613619565b6115c8565b34801561078c575f80fd5b506103dc61079b366004613619565b611905565b3480156107ab575f80fd5b5061040b6107ba366004613619565b611937565b3480156107ca575f80fd5b505f80516020613dad8339815191525460ff166103dc565b3480156107ed575f80fd5b5061040b6107fc3660046138c3565b611c67565b34801561080c575f80fd5b5061040b611e72565b348015610820575f80fd5b506103aa5f80516020613d2d83398151915281565b348015610840575f80fd5b506103dc61084f366004613619565b60026020525f908152604090205460ff1681565b34801561086e575f80fd5b506103dc61087d36600461374f565b611e83565b34801561088d575f80fd5b50600154610554906001600160a01b031681565b3480156108ac575f80fd5b5061040b611ece565b3480156108c0575f80fd5b506103dc6108cf366004613619565b5f9081526003602052604090205460ff1690565b3480156108ee575f80fd5b506105546108fd366004613619565b60046020525f90815260409020546001600160a01b031681565b348015610922575f80fd5b506103dc61093136600461374f565b611ede565b348015610941575f80fd5b507f9016d09d72d40fdae2fd8ceac6b6234c7706214fd39c1cd1e609a0528c199300546001600160a01b0316610554565b34801561097d575f80fd5b506103aa61098c36600461374f565b600b6020525f908152604090205481565b3480156109a8575f80fd5b506103dc6109b736600461376a565b611f29565b3480156109c7575f80fd5b506103dc6109d6366004613619565b60036020525f908152604090205460ff1681565b3480156109f5575f80fd5b506103dc610a043660046138fd565b611f5f565b348015610a14575f80fd5b50610a28610a23366004613619565b611fe2565b604080519283526020830191909152016103b4565b348015610a48575f80fd5b50610a5c610a57366004613619565b61206c565b6040805194855260208501939093529183015260608201526080016103b4565b348015610a87575f80fd5b506103aa5f81565b348015610a9a575f80fd5b5061040b610aa9366004613657565b612130565b348015610ab9575f80fd5b506103aa610ac836600461374f565b600f6020525f908152604090205481565b348015610ae4575f80fd5b50610b09604051806040016040528060058152602001640352e302e360dc1b81525081565b6040516103b49190613949565b348015610b21575f80fd5b50610a28610b30366004613619565b6124ff565b348015610b40575f80fd5b506103aa610b4f366004613619565b600a6020525f908152604090205481565b348015610b6b575f80fd5b5061040b610b7a366004613657565b612588565b348015610b8a575f80fd5b5061040b610b9936600461376a565b612718565b348015610ba9575f80fd5b506103aa610bb8366004613619565b60066020525f908152604090205481565b348015610bd4575f80fd5b5061040b610be336600461398b565b612734565b348015610bf3575f80fd5b5061040b610c0236600461374f565b612914565b348015610c12575f80fd5b5061040b610c213660046138c3565b61296d565b348015610c31575f80fd5b5061040b610c4036600461374f565b612cdc565b348015610c50575f80fd5b505f54610554906001600160a01b031681565b5f6001600160e01b03198216637965db0b60e01b1480610c9357506301ffc9a760e01b6001600160e01b03198316145b92915050565b610cb05f80516020613d2d83398151915233611f29565b80610ccd5750610ccd5f80516020613ded83398151915233611f29565b610cf25760405162461bcd60e51b8152600401610ce990613a5c565b60405180910390fd5b5f8281526004602052604090205482906001600160a01b0316610d275760405162461bcd60e51b8152600401610ce990613aa1565b5f83815260056020908152604080832054600890925290912054849111610d855760405162461bcd60e51b8152602060048201526012602482015271131bd85b881a5cc8199d5b1b1e481c185a5960721b6044820152606401610ce9565b5f848152600760209081526040808320869055600582528083205460089092528220549091610db48284613ae2565b5f888152600a60205260409020549091506201d4c090610dd48884613af5565b610dde9190613af5565b610de89190613b0c565b5f888152600660209081526040918290209290925580518981529182018890527f0b24a7dcfd1946a0184ebba0acf8fea0c9a8e6d11e3ff854102f2c078ced3cbe91015b60405180910390a150505050505050565b600d546001600160a01b03163314610e975760405162461bcd60e51b815260206004820181905260248201527f4f6e6c792072656c617920736572766963652063616e2063616c6c20746869736044820152606401610ce9565b5f8585604051610ea8929190613b2b565b604051809103902090507f8b495e00bf7277f06ae3ba831e2bfe2ba592ac6c25f62e271bb5efc07aea4e698103610ee957610ee4848484612d16565b610f27565b60405162461bcd60e51b8152602060048201526013602482015272556e6b6e6f776e206e6f74696365207479706560681b6044820152606401610ce9565b505050505050565b610f37612e10565b600d80546001600160a01b038381166001600160a01b0319831681179093556040519116919082907f208f939bfff4e1e8ff07922cc11f975f889fc35740c983aa52fd2f85f5e1d555905f90a35050565b6001545f906001600160a01b0316610fa157505f919050565b60015460405163387a5b6d60e21b8152600481018490526001600160a01b039091169063e1e96db4906024015b602060405180830381865afa158015610fe9573d5f803e3d5ffd5b505050506040513d601f19601f82011682018060405250810190610c939190613b49565b6040805160c0810182525f80825260208201819052918101829052606081018290526080810182905260a08101919091526001546001600160a01b031661108e5760405162461bcd60e51b8152602060048201526015602482015274141c9bdbd995995c9a599a595c881b9bdd081cd95d605a1b6044820152606401610ce9565b6001546040516387c461dd60e01b8152600481018490526001600160a01b03909116906387c461dd9060240160c060405180830381865afa1580156110d5573d5f803e3d5ffd5b505050506040513d601f19601f82011682018060405250810190610c939190613b62565b5f9081525f80516020613d8d833981519152602052604090206001015490565b611121612e6b565b5f8181526004602052604090205481906001600160a01b03166111565760405162461bcd60e51b8152600401610ce990613aa1565b5f82815260026020526040902054829060ff166111855760405162461bcd60e51b8152600401610ce990613bde565b61119c5f80516020613ded83398151915233611f29565b806111b957506111b95f80516020613d4d83398151915233611f29565b6112155760405162461bcd60e51b815260206004820152602760248201527f4d757374206861766520706f6f6c206d616e61676572206f7220617070726f76604482015266657220726f6c6560c81b6064820152608401610ce9565b5f8381526003602052604090205460ff161561126c5760405162461bcd60e51b8152602060048201526016602482015275131bd85b88185b1c9958591e48191959985d5b1d195960521b6044820152606401610ce9565b5f83815260086020908152604080832054600590925282205461128f9190613ae2565b5f85815260096020908152604080832054600690925282205492935090916112b79190613ae2565b90505f8211806112c657505f81115b6113125760405162461bcd60e51b815260206004820152601f60248201527f4c6f616e20686173206e6f206f75747374616e64696e672062616c616e6365006044820152606401610ce9565b5f858152600360209081526040808320805460ff19908116600117909155600290925290912080549091169055811561135c5781600c5f8282546113569190613ae2565b90915550505b5f858152600460209081526040918290205482518881526001600160a01b0390911691810191909152908101839052606081018290527fd1c1cb852cc91610d360db108e5f385ba6670e870db8639af4a52ed50ad487f19060800160405180910390a15050505050565b6113cf826110f9565b6113d881612e9b565b6113e28383612ea5565b50505050565b6001600160a01b03811633146114115760405163334bd91960e11b815260040160405180910390fd5b61141b8282612f46565b505050565b611428612e10565b611430612fbf565b565b61143a61301e565b611443826130c2565b61144d82826130ca565b5050565b611459612e6b565b6114705f80516020613d2d83398151915233611f29565b8061148d575061148d5f80516020613ded83398151915233611f29565b6114a95760405162461bcd60e51b8152600401610ce990613a5c565b5f8581526004602052604090205485906001600160a01b0316156114df5760405162461bcd60e51b8152600401610ce990613c0a565b5f86815260046020908152604080832080546001600160a01b0319166001600160a01b038a16179055600590915290208490556201d4c0826115218587613af5565b61152b9190613af5565b6115359190613b0c565b5f878152600660209081526040808320939093556007815282822086905560088152828220829055600a9052819020839055517fe960062a0ba868077d9ca9d5a3ba16f32ee978fef2a58df3e1385a6f7f3d6a149061159d9088908890889088908890613c37565b60405180910390a1505050505050565b5f6115b6613186565b505f80516020613d6d83398151915290565b6115d0612e6b565b6115d86131cf565b6115ef5f80516020613d2d83398151915233611f29565b8061160c575061160c5f80516020613ded83398151915233611f29565b6116285760405162461bcd60e51b8152600401610ce990613a5c565b5f8181526004602052604090205481906001600160a01b031661165d5760405162461bcd60e51b8152600401610ce990613aa1565b5f82815260026020526040902054829060ff16156116b45760405162461bcd60e51b8152602060048201526014602482015273131bd85b88185b1c9958591e4818dc99585d195960621b6044820152606401610ce9565b5f8381526005602052604080822054915490516370a0823160e01b815230600482015282916001600160a01b0316906370a0823190602401602060405180830381865afa158015611707573d5f803e3d5ffd5b505050506040513d601f19601f8201168201806040525081019061172b9190613c63565b10156117915760405162461bcd60e51b815260206004820152602f60248201527f496e73756666696369656e7420706f6f6c206c697175696469747920666f722060448201526e3637b0b71030b1ba34bb30ba34b7b760891b6064820152608401610ce9565b5f848152600260205260408120805460ff19166001179055600c80548392906117bb908490613c7a565b90915550505f805485825260046020819052604080842054905163a9059cbb60e01b81526001600160a01b0391821692810192909252602482018590529091169063a9059cbb906044016020604051808303815f875af1158015611821573d5f803e3d5ffd5b505050506040513d601f19601f820116820180604052508101906118459190613b49565b90508061188c5760405162461bcd60e51b8152602060048201526015602482015274151bdad95b881d1c985b9cd9995c8819985a5b1959605a1b6044820152606401610ce9565b5f858152600460209081526040918290205482518881526001600160a01b03909116918101919091529081018390527fee2def75604a7ee0f616223c636b6674a0cf1e2b1d6a12d18e06144a2aa98ba49060600160405180910390a15050505061190260015f80516020613dcd83398151915255565b50565b5f818152600e602052604081206004015460ff168015610c935750505f908152600e6020526040902060030154151590565b61193f612e6b565b6119476131cf565b5f8181526004602052604090205481906001600160a01b031661197c5760405162461bcd60e51b8152600401610ce990613aa1565b5f82815260026020526040902054829060ff166119ab5760405162461bcd60e51b8152600401610ce990613bde565b5f838152600460205260409020546001600160a01b031633146119e05760405162461bcd60e51b8152600401610ce990613c8d565b5f6119ea84611fe2565b5f868152600860209081526040808320546005909252822054929450909250611a1291613ae2565b90505f8111611a635760405162461bcd60e51b815260206004820152601c60248201527f4c6f616e20697320616c72656164792066756c6c7920726570616964000000006044820152606401610ce9565b805f611a6f8483613c7a565b90505f8111611ac05760405162461bcd60e51b815260206004820152601d60248201527f416d6f756e74206d7573742062652067726561746572207468616e20300000006044820152606401610ce9565b81600c5f828254611ad19190613ae2565b90915550505f546040516323b872dd60e01b8152336004820152306024820152604481018390526001600160a01b03909116906323b872dd906064016020604051808303815f875af1158015611b29573d5f803e3d5ffd5b505050506040513d601f19601f82011682018060405250810190611b4d9190613b49565b611b8b5760405162461bcd60e51b815260206004820152600f60248201526e151c985b9cd9995c8819985a5b1959608a1b6044820152606401610ce9565b5f8781526008602052604081208054849290611ba8908490613c7a565b90915550505f8781526009602052604081208054869290611bca908490613c7a565b90915550505f8781526005602090815260408083205460089092529091205410611c04575f878152600260205260409020805460ff191690555b60408051888152336020820152908101839052606081018590527fc39b9957b5245fa5f361e29d4e04b204db93dc7f3d78bbadeb9e7809d2d77eca9060800160405180910390a150505050505061190260015f80516020613dcd83398151915255565b611c6f612e6b565b611c865f80516020613d2d83398151915233611f29565b80611ca35750611ca35f80516020613ded83398151915233611f29565b611cbf5760405162461bcd60e51b8152600401610ce990613a5c565b5f8481526004602052604090205484906001600160a01b031615611cf55760405162461bcd60e51b8152600401610ce990613c0a565b5f858152600e6020908152604091829020825160a081018452815481526001820154928101929092526002810154928201929092526003820154606082015260049091015460ff161580156080830181905290611d5557505f8160600151115b611dad5760405162461bcd60e51b815260206004820152602360248201527f4e6f2076616c6964207a6b4665746368204453435220666f722074686973206c60448201526237b0b760e91b6064820152608401610ce9565b6020818101515f88815260048352604080822080546001600160a01b0319166001600160a01b038b161790556005909352919091208590556201d4c084611df48388613af5565b611dfe9190613af5565b611e089190613b0c565b5f888152600660209081526040808320939093556007815282822084905560088152828220829055600a9052819020859055825190517f4c255df4437149bf400c2a7c64c5b085a1629e5c8576b83c29b0cf3078267c3a91610e2c918a918a918a91908790613c37565b611e7a612e10565b6114305f613219565b6001545f906001600160a01b0316611e9c57505f919050565b600154604051631618f00560e11b81526001600160a01b03848116600483015290911690632c31e00a90602401610fce565b611ed6612e10565b611430613289565b6001545f906001600160a01b0316611ef757505f919050565b60015460405163f4ac768160e01b81526001600160a01b0384811660048301529091169063f4ac768190602401610fce565b5f9182525f80516020613d8d833981519152602090815260408084206001600160a01b0393909316845291905290205460ff1690565b5f611f68612e10565b5f5460405163a9059cbb60e01b81526001600160a01b038581166004830152602482018590529091169063a9059cbb906044016020604051808303815f875af1158015611fb7573d5f803e3d5ffd5b505050506040513d601f19601f82011682018060405250810190611fdb9190613b49565b9392505050565b5f81815260056020908152604080832054600683528184205460089093529083205483929083816120138486613c7a565b61201d9190613ae2565b5f88815260076020908152604080832054600a909252909120549192509082612049826201d4c0613af5565b6120538486613af5565b61205d9190613b0c565b97509750505050505050915091565b5f818152600e60209081526040808320815160a0810183528154815260018201549381019390935260028101549183019190915260038101546060830181905260049091015460ff16151560808301528291829182919061210f5760405162461bcd60e51b815260206004820152601e60248201527f4e6f207665726966696564204453435220666f722074686973206c6f616e00006044820152606401610ce9565b80516020820151604083015160609093015191989097509195509350915050565b612138612e6b565b6121406131cf565b5f8281526004602052604090205482906001600160a01b03166121755760405162461bcd60e51b8152600401610ce990613aa1565b5f83815260026020526040902054839060ff166121a45760405162461bcd60e51b8152600401610ce990613bde565b5f848152600460205260409020546001600160a01b031633146121d95760405162461bcd60e51b8152600401610ce990613c8d565b5f83116122285760405162461bcd60e51b815260206004820152601d60248201527f416d6f756e74206d7573742062652067726561746572207468616e20300000006044820152606401610ce9565b5f84815260086020908152604080832054600590925282205461224b9190613ae2565b5f86815260096020908152604080832054600690925282205492935090916122739190613ae2565b90505f6122808284613c7a565b90505f83116122d15760405162461bcd60e51b815260206004820152601c60248201527f4c6f616e20697320616c72656164792066756c6c7920726570616964000000006044820152606401610ce9565b8086111561232d5760405162461bcd60e51b815260206004820152602360248201527f5061796d656e742065786365656473206f75747374616e64696e672062616c616044820152626e636560e81b6064820152608401610ce9565b5f8083881161234057508690505f612350565b83915061234d8289613ae2565b90505b801561236d5780600c5f8282546123679190613ae2565b90915550505b5f546040516323b872dd60e01b8152336004820152306024820152604481018a90526001600160a01b03909116906323b872dd906064016020604051808303815f875af11580156123c0573d5f803e3d5ffd5b505050506040513d601f19601f820116820180604052508101906123e49190613b49565b6124225760405162461bcd60e51b815260206004820152600f60248201526e151c985b9cd9995c8819985a5b1959608a1b6044820152606401610ce9565b5f898152600860205260408120805483929061243f908490613c7a565b90915550505f8981526009602052604081208054849290612461908490613c7a565b90915550505f898152600560209081526040808320546008909252909120541061249b575f898152600260205260409020805460ff191690555b604080518a8152336020820152908101829052606081018390527fc39b9957b5245fa5f361e29d4e04b204db93dc7f3d78bbadeb9e7809d2d77eca9060800160405180910390a15050505050505061144d60015f80516020613dcd83398151915255565b5f81815260046020526040812054819083906001600160a01b03166125365760405162461bcd60e51b8152600401610ce990613aa1565b5f8481526008602090815260408083205460059092529091205461255a9190613ae2565b5f8581526009602090815260408083205460069092529091205491945061258091613ae2565b915050915091565b61259f5f80516020613d2d83398151915233611f29565b806125bc57506125bc5f80516020613ded83398151915233611f29565b6125d85760405162461bcd60e51b8152600401610ce990613a5c565b5f8281526004602052604090205482906001600160a01b031661260d5760405162461bcd60e51b8152600401610ce990613aa1565b5f8381526005602090815260408083205460089092529091205484911161266b5760405162461bcd60e51b8152602060048201526012602482015271131bd85b881a5cc8199d5b1b1e481c185a5960721b6044820152606401610ce9565b5f848152600a6020908152604080832086905560058252808320546008909252822054909161269a8284613ae2565b5f888152600760205260409020549091506201d4c09087906126bc9084613af5565b6126c69190613af5565b6126d09190613b0c565b5f888152600660209081526040918290209290925580518981529182018890527fd500c7a7d45dd0769d8a427ddb2dbce05b6a44e1f9b1174dd966f6678c0d1bfd9101610e2c565b612721826110f9565b61272a81612e9b565b6113e28383612f46565b7ff0c57e16840df040f15088dc2f81fe391c3923bec73e23a9662efc9c229c6a008054600160401b810460ff16159067ffffffffffffffff165f811580156127795750825b90505f8267ffffffffffffffff1660011480156127955750303b155b9050811580156127a3575080155b156127c15760405163f92ee8a960e01b815260040160405180910390fd5b845467ffffffffffffffff1916600117855583156127eb57845460ff60401b1916600160401b1785555b6127f4886132d1565b6127fc6132e2565b6128046132ea565b61280c6132fa565b6128146132e2565b61281e5f89612ea5565b506128365f80516020613ded8339815191525f61330a565b61284d5f80516020613ded83398151915289612ea5565b506128655f80516020613d4d8339815191525f61330a565b5f5b87518110156128a9576128a05f80516020613d4d83398151915289838151811061289357612893613cce565b6020026020010151612ea5565b50600101612867565b505f80546001600160a01b0319166001600160a01b038816179055831561290a57845460ff60401b19168555604051600181527fc7f505b2f371ae2175ee4913f4499e1f2633a7b5936321eed1cdaeb6115181d29060200160405180910390a15b5050505050505050565b61291c612e10565b600180546001600160a01b038381166001600160a01b0319831681179093556040519116919082907f2528461cee59a1a81abc2cd0469d9248881264358195aa0d6fbb990d5fb965d1905f90a35050565b612975612e6b565b61298c5f80516020613d2d83398151915233611f29565b806129a957506129a95f80516020613ded83398151915233611f29565b6129c55760405162461bcd60e51b8152600401610ce990613a5c565b5f8481526004602052604090205484906001600160a01b0316156129fb5760405162461bcd60e51b8152600401610ce990613c0a565b60015485906001600160a01b0316612a265760405163a88443ff60e01b815260040160405180910390fd5b60015460405163387a5b6d60e21b8152600481018390526001600160a01b039091169063e1e96db490602401602060405180830381865afa158015612a6d573d5f803e3d5ffd5b505050506040513d601f19601f82011682018060405250810190612a919190613b49565b612ab15760405163548d3f9160e11b815260048101829052602401610ce9565b60015485906001600160a01b0316612adc5760405163a88443ff60e01b815260040160405180910390fd5b600154604051631618f00560e11b81526001600160a01b03838116600483015290911690632c31e00a90602401602060405180830381865afa158015612b24573d5f803e3d5ffd5b505050506040513d601f19601f82011682018060405250810190612b489190613b49565b612b945760405162461bcd60e51b815260206004820152601e60248201527f426f72726f776572206964656e74697479206e6f7420766572696669656400006044820152606401610ce9565b6001546040516387c461dd60e01b8152600481018990525f916001600160a01b0316906387c461dd9060240160c060405180830381865afa158015612bdb573d5f803e3d5ffd5b505050506040513d601f19601f82011682018060405250810190612bff9190613b62565b6040818101515f8b81526004602090815283822080546001600160a01b0319166001600160a01b038e1617905560059052919091208890559091506201d4c086612c49838a613af5565b612c539190613af5565b612c5d9190613b0c565b5f8a8152600660209081526040808320939093556007815282822084905560088152828220829055600a81529082902088905583015190517f4c255df4437149bf400c2a7c64c5b085a1629e5c8576b83c29b0cf3078267c3a91612cc9918c918c918c91908790613c37565b60405180910390a1505050505050505050565b612ce4612e10565b6001600160a01b038116612d0d57604051631e4fbdf760e01b81525f6004820152602401610ce9565b61190281613219565b5f808080612d2685870187613ce2565b6040805160a081018252848152602080820185815282840185815242606085018181526001608087018181525f8d8152600e8852898120985189559551918801919091559251600287015551600386015590516004909401805494151560ff19909516949094179093556001600160a01b038f16808252600f909252839020879055915195995093975091955093509186917fad0b6c5d2eb1cde3e83052f57dbadd5b2e4848d47c1332e3cf68a2977f80452a91612dff9188918891889193845260208401929092526040830152606082015260800190565b60405180910390a350505050505050565b33612e427f9016d09d72d40fdae2fd8ceac6b6234c7706214fd39c1cd1e609a0528c199300546001600160a01b031690565b6001600160a01b0316146114305760405163118cdaa760e01b8152336004820152602401610ce9565b5f80516020613dad8339815191525460ff16156114305760405163d93c066560e01b815260040160405180910390fd5b611902813361336a565b5f5f80516020613d8d833981519152612ebe8484611f29565b612f3d575f848152602082815260408083206001600160a01b03871684529091529020805460ff19166001179055612ef33390565b6001600160a01b0316836001600160a01b0316857f2f8788117e7eff1d82e926ec794901d17c78024a50270940304540a733656f0d60405160405180910390a46001915050610c93565b5f915050610c93565b5f5f80516020613d8d833981519152612f5f8484611f29565b15612f3d575f848152602082815260408083206001600160a01b0387168085529252808320805460ff1916905551339287917ff6391f5c32d9c69d2a47ea670b442974b53935d1edc7fd64eb21e047a839171b9190a46001915050610c93565b612fc76133a3565b5f80516020613dad833981519152805460ff191681557f5db9ee0a495bf2e6ff9c91a7834c1ba4fdd244a5e8aa4e537bd38aeae4b073aa335b6040516001600160a01b03909116815260200160405180910390a150565b306001600160a01b037f00000000000000000000000000000000000000000000000000000000000000001614806130a457507f00000000000000000000000000000000000000000000000000000000000000006001600160a01b03166130985f80516020613d6d833981519152546001600160a01b031690565b6001600160a01b031614155b156114305760405163703e46dd60e11b815260040160405180910390fd5b611902612e10565b816001600160a01b03166352d1902d6040518163ffffffff1660e01b8152600401602060405180830381865afa925050508015613124575060408051601f3d908101601f1916820190925261312191810190613c63565b60015b61314c57604051634c9c8ce360e01b81526001600160a01b0383166004820152602401610ce9565b5f80516020613d6d833981519152811461317c57604051632a87526960e21b815260048101829052602401610ce9565b61141b83836133d2565b306001600160a01b037f000000000000000000000000000000000000000000000000000000000000000016146114305760405163703e46dd60e11b815260040160405180910390fd5b5f80516020613dcd83398151915280546001190161320057604051633ee5aeb560e01b815260040160405180910390fd5b60029055565b60015f80516020613dcd83398151915255565b7f9016d09d72d40fdae2fd8ceac6b6234c7706214fd39c1cd1e609a0528c19930080546001600160a01b031981166001600160a01b03848116918217845560405192169182907f8be0079c531659141344cd1fd0a4f28419497f9722a3daafe3b4186f6b6457e0905f90a3505050565b613291612e6b565b5f80516020613dad833981519152805460ff191660011781557f62e78cea01bee320cd4e420270b5ea74000d11b0c9f74754ebdbfc544b05a25833613000565b6132d9613427565b61190281613470565b611430613427565b6132f2613427565b611430613478565b613302613427565b611430613498565b5f80516020613d8d8339815191525f613322846110f9565b5f85815260208490526040808220600101869055519192508491839187917fbd79b86ffe0ab8e8776151514217cd7cacd52c909f66475c3af44e129f0b00ff9190a450505050565b6133748282611f29565b61144d5760405163e2517d3f60e01b81526001600160a01b038216600482015260248101839052604401610ce9565b5f80516020613dad8339815191525460ff1661143057604051638dfc202b60e01b815260040160405180910390fd5b6133db826134a0565b6040516001600160a01b038316907fbc7cd75a20ee27fd9adebab32041f755214dbc6bffa90cc0225b39da2e5c2d3b905f90a280511561341f5761141b8282613503565b61144d613575565b7ff0c57e16840df040f15088dc2f81fe391c3923bec73e23a9662efc9c229c6a0054600160401b900460ff1661143057604051631afcd79f60e31b815260040160405180910390fd5b612ce4613427565b613480613427565b5f80516020613dad833981519152805460ff19169055565b613206613427565b806001600160a01b03163b5f036134d557604051634c9c8ce360e01b81526001600160a01b0382166004820152602401610ce9565b5f80516020613d6d83398151915280546001600160a01b0319166001600160a01b0392909216919091179055565b60605f80846001600160a01b03168460405161351f9190613d11565b5f60405180830381855af49150503d805f8114613557576040519150601f19603f3d011682016040523d82523d5f602084013e61355c565b606091505b509150915061356c858383613594565b95945050505050565b34156114305760405163b398979f60e01b815260040160405180910390fd5b6060826135a9576135a4826135f0565b611fdb565b81511580156135c057506001600160a01b0384163b155b156135e957604051639996b31560e01b81526001600160a01b0385166004820152602401610ce9565b5092915050565b8051156136005780518082602001fd5b60405163d6bda27560e01b815260040160405180910390fd5b5f60208284031215613629575f80fd5b5035919050565b5f60208284031215613640575f80fd5b81356001600160e01b031981168114611fdb575f80fd5b5f8060408385031215613668575f80fd5b50508035926020909101359150565b5f8083601f840112613687575f80fd5b50813567ffffffffffffffff81111561369e575f80fd5b6020830191508360208285010111156136b5575f80fd5b9250929050565b6001600160a01b0381168114611902575f80fd5b5f805f805f606086880312156136e4575f80fd5b853567ffffffffffffffff808211156136fb575f80fd5b61370789838a01613677565b90975095506020880135915061371c826136bc565b90935060408701359080821115613731575f80fd5b5061373e88828901613677565b969995985093965092949392505050565b5f6020828403121561375f575f80fd5b8135611fdb816136bc565b5f806040838503121561377b575f80fd5b82359150602083013561378d816136bc565b809150509250929050565b634e487b7160e01b5f52604160045260245ffd5b604051601f8201601f1916810167ffffffffffffffff811182821017156137d5576137d5613798565b604052919050565b5f80604083850312156137ee575f80fd5b82356137f9816136bc565b915060208381013567ffffffffffffffff80821115613816575f80fd5b818601915086601f830112613829575f80fd5b81358181111561383b5761383b613798565b61384d601f8201601f191685016137ac565b91508082528784828501011115613862575f80fd5b80848401858401375f848284010152508093505050509250929050565b5f805f805f60a08688031215613893575f80fd5b8535945060208601356138a5816136bc565b94979496505050506040830135926060810135926080909101359150565b5f805f80608085870312156138d6575f80fd5b8435935060208501356138e8816136bc565b93969395505050506040820135916060013590565b5f806040838503121561390e575f80fd5b8235613919816136bc565b946020939093013593505050565b5f5b83811015613941578181015183820152602001613929565b50505f910152565b602081525f8251806020840152613967816040850160208701613927565b601f01601f19169190910160400192915050565b8035613986816136bc565b919050565b5f805f6060848603121561399d575f80fd5b83356139a8816136bc565b925060208481013567ffffffffffffffff808211156139c5575f80fd5b818701915087601f8301126139d8575f80fd5b8135818111156139ea576139ea613798565b8060051b91506139fb8483016137ac565b818152918301840191848101908a841115613a14575f80fd5b938501935b83851015613a3e5784359250613a2e836136bc565b8282529385019390850190613a19565b809750505050505050613a536040850161397b565b90509250925092565b60208082526025908201527f4d75737420686176652073797374656d206f7220706f6f6c206d616e6167657260408201526420726f6c6560d81b606082015260800190565b602080825260139082015272131bd85b88191bd95cc81b9bdd08195e1a5cdd606a1b604082015260600190565b634e487b7160e01b5f52601160045260245ffd5b81810381811115610c9357610c93613ace565b8082028115828204841417610c9357610c93613ace565b5f82613b2657634e487b7160e01b5f52601260045260245ffd5b500490565b818382375f9101908152919050565b80518015158114613986575f80fd5b5f60208284031215613b59575f80fd5b611fdb82613b3a565b5f60c08284031215613b72575f80fd5b60405160c0810181811067ffffffffffffffff82111715613b9557613b95613798565b80604052508251815260208301516020820152604083015160408201526060830151606082015260808301516080820152613bd260a08401613b3a565b60a08201529392505050565b6020808252601290820152714c6f616e206973206e6f742061637469766560701b604082015260600190565b6020808252601390820152724c6f616e20616c72656164792065786973747360681b604082015260600190565b9485526001600160a01b0393909316602085015260408401919091526060830152608082015260a00190565b5f60208284031215613c73575f80fd5b5051919050565b80820180821115610c9357610c93613ace565b60208082526021908201527f4f6e6c7920626f72726f7765722063616e206d616b652072657061796d656e746040820152607360f81b606082015260800190565b634e487b7160e01b5f52603260045260245ffd5b5f805f8060808587031215613cf5575f80fd5b5050823594602084013594506040840135936060013592509050565b5f8251613d22818460208701613927565b919091019291505056fe5719df9ef2c4678b547f89e4f5ae410dbf400fc51cf3ded434c55f6adea2c43f408a36151f841709116a4e8aca4e0202874f7f54687dcb863b1ea4672dc9d8cf360894a13ba1a3210667c828492db98dca3e2076cc3735a920a3ca505d382bbc02dd7bc7dec4dceedda775e58dd541e08a116c6c53815c0bd028192f7b626800cd5ed15c6e187e77e9aee88184c21f4f2182ab5827cb3b7e07fbedcd63f033009b779b17422d0df92223018b32b4d1fa46e071723d6817e2486d003becc55f006077685936c8169d09204a1d97db12e41713588c38e1d29a61867d3dcee98affa2646970667358221220253e97f97e155cb822d1bae3c5ec94cb4f8f9ef776477b1162ba54d2672a7d5c64736f6c63430008160033","linkReferences":{}},"methodIdentifiers":{"APPROVER_ROLE()":"4245962b","DEFAULT_ADMIN_ROLE()":"a217fddf","POOL_MANAGER_ROLE()":"56d73568","SYSTEM_ROLE()":"75071d2a","UPGRADE_INTERFACE_VERSION()":"ad3cb1cc","activateLoan(bytes32)":"59694e14","borrowerLatestLoanId(address)":"aa43ce9c","createLoan(bytes32,address,uint256,uint256,uint256)":"4fe9a7e3","createLoanWithVerifiedDscr(bytes32,address,uint256,uint256)":"ebcf3070","createLoanWithZkFetchDscr(bytes32,address,uint256,uint256)":"5ed6c569","getBorrowerLatestVerifiedLoan(address)":"3a308585","getLoanOutstanding(bytes32)":"b74880fe","getNextRepayment(bytes32)":"9b9818ca","getRoleAdmin(bytes32)":"248a9ca3","getVerifiedDscrResult(bytes32)":"229ac050","getZkFetchDscrResult(bytes32)":"9dc788e6","grantRole(bytes32,address)":"2f2ff15d","handleNotice(string,address,bytes)":"066a555e","hasBorrowerTransactions(address)":"89cf2ed9","hasRole(bytes32,address)":"91d14854","hasVerifiedDscr(bytes32)":"1833b0da","hasZkFetchVerifiedDscr(bytes32)":"59ee06fc","initialize(address,address[],address)":"dc5b68a6","isBorrowerVerified(address)":"7c38bbd3","isLoanDefaulted(bytes32)":"8590aba9","loanAmounts(address)":"8f78e2f0","loanIdToActive(bytes32)":"751247f0","loanIdToAmount(bytes32)":"183c87e7","loanIdToBorrower(bytes32)":"889ed68a","loanIdToDefaulted(bytes32)":"94c1896a","loanIdToInterestAmount(bytes32)":"da23f61d","loanIdToInterestRate(bytes32)":"0a2d0854","loanIdToInterestRepaymentAmount(bytes32)":"51be16a3","loanIdToRepaymentAmount(bytes32)":"00396354","loanIdToRepaymentRemainingMonths(bytes32)":"c3efa28a","makePartialRepayment(bytes32,uint256)":"a4e80d5e","makeRepayment(bytes32)":"5c3d6a92","markLoanDefaulted(bytes32)":"2a68416c","owner()":"8da5cb5b","pause()":"8456cb59","paused()":"5c975abb","proofVerifier()":"7fa417b3","proxiableUUID()":"52d1902d","relayService()":"1f1dbef1","renounceOwnership()":"715018a6","renounceRole(bytes32,address)":"36568abe","revokeRole(bytes32,address)":"d547741f","setProofVerifier(address)":"df6244db","setRelayService(address)":"10f00f9b","supportsInterface(bytes4)":"01ffc9a7","token()":"fc0c546a","totalLentAmount()":"43f7f740","transferFunds(address,uint256)":"990dc9db","transferOwnership(address)":"f2fde38b","unpause()":"3f4ba83a","updateLoanInterestRate(bytes32,uint256)":"0596313b","updateLoanRepaymentRemainingMonths(bytes32,uint256)":"c56b6850","upgradeToAndCall(address,bytes)":"4f1ef286","zkFetchDscrResults(bytes32)":"08f72923"},"storageLayout":{"storage":[{"astId":52542,"contract":"src/Loan/CreditTreasuryPool.sol:CreditTreasuryPool","label":"token","offset":0,"slot":"0","type":"t_contract(ERC20Upgradeable)42068"},{"astId":52545,"contract":"src/Loan/CreditTreasuryPool.sol:CreditTreasuryPool","label":"proofVerifier","offset":0,"slot":"1","type":"t_contract(IProofVerifier)56287"},{"astId":52549,"contract":"src/Loan/CreditTreasuryPool.sol:CreditTreasuryPool","label":"loanIdToActive","offset":0,"slot":"2","type":"t_mapping(t_bytes32,t_bool)"},{"astId":52553,"contract":"src/Loan/CreditTreasuryPool.sol:CreditTreasuryPool","label":"loanIdToDefaulted","offset":0,"slot":"3","type":"t_mapping(t_bytes32,t_bool)"},{"astId":52557,"contract":"src/Loan/CreditTreasuryPool.sol:CreditTreasuryPool","label":"loanIdToBorrower","offset":0,"slot":"4","type":"t_mapping(t_bytes32,t_address)"},{"astId":52561,"contract":"src/Loan/CreditTreasuryPool.sol:CreditTreasuryPool","label":"loanIdToAmount","offset":0,"slot":"5","type":"t_mapping(t_bytes32,t_uint256)"},{"astId":52565,"contract":"src/Loan/CreditTreasuryPool.sol:CreditTreasuryPool","label":"loanIdToInterestAmount","offset":0,"slot":"6","type":"t_mapping(t_bytes32,t_uint256)"},{"astId":52569,"contract":"src/Loan/CreditTreasuryPool.sol:CreditTreasuryPool","label":"loanIdToInterestRate","offset":0,"slot":"7","type":"t_mapping(t_bytes32,t_uint256)"},{"astId":52573,"contract":"src/Loan/CreditTreasuryPool.sol:CreditTreasuryPool","label":"loanIdToRepaymentAmount","offset":0,"slot":"8","type":"t_mapping(t_bytes32,t_uint256)"},{"astId":52577,"contract":"src/Loan/CreditTreasuryPool.sol:CreditTreasuryPool","label":"loanIdToInterestRepaymentAmount","offset":0,"slot":"9","type":"t_mapping(t_bytes32,t_uint256)"},{"astId":52581,"contract":"src/Loan/CreditTreasuryPool.sol:CreditTreasuryPool","label":"loanIdToRepaymentRemainingMonths","offset":0,"slot":"10","type":"t_mapping(t_bytes32,t_uint256)"},{"astId":52585,"contract":"src/Loan/CreditTreasuryPool.sol:CreditTreasuryPool","label":"loanAmounts","offset":0,"slot":"11","type":"t_mapping(t_address,t_uint256)"},{"astId":52587,"contract":"src/Loan/CreditTreasuryPool.sol:CreditTreasuryPool","label":"totalLentAmount","offset":0,"slot":"12","type":"t_uint256"},{"astId":52589,"contract":"src/Loan/CreditTreasuryPool.sol:CreditTreasuryPool","label":"relayService","offset":0,"slot":"13","type":"t_address"},{"astId":52605,"contract":"src/Loan/CreditTreasuryPool.sol:CreditTreasuryPool","label":"zkFetchDscrResults","offset":0,"slot":"14","type":"t_mapping(t_bytes32,t_struct(ZkFetchDscrResult)52600_storage)"},{"astId":52609,"contract":"src/Loan/CreditTreasuryPool.sol:CreditTreasuryPool","label":"borrowerLatestLoanId","offset":0,"slot":"15","type":"t_mapping(t_address,t_bytes32)"}],"types":{"t_address":{"encoding":"inplace","label":"address","numberOfBytes":"20"},"t_bool":{"encoding":"inplace","label":"bool","numberOfBytes":"1"},"t_bytes32":{"encoding":"inplace","label":"bytes32","numberOfBytes":"32"},"t_contract(ERC20Upgradeable)42068":{"encoding":"inplace","label":"contract ERC20Upgradeable","numberOfBytes":"20"},"t_contract(IProofVerifier)56287":{"encoding":"inplace","label":"contract IProofVerifier","numberOfBytes":"20"},"t_mapping(t_address,t_bytes32)":{"encoding":"mapping","key":"t_address","label":"mapping(address => bytes32)","numberOfBytes":"32","value":"t_bytes32"},"t_mapping(t_address,t_uint256)":{"encoding":"mapping","key":"t_address","label":"mapping(address => uint256)","numberOfBytes":"32","value":"t_uint256"},"t_mapping(t_bytes32,t_address)":{"encoding":"mapping","key":"t_bytes32","label":"mapping(bytes32 => address)","numberOfBytes":"32","value":"t_address"},"t_mapping(t_bytes32,t_bool)":{"encoding":"mapping","key":"t_bytes32","label":"mapping(bytes32 => bool)","numberOfBytes":"32","value":"t_bool"},"t_mapping(t_bytes32,t_struct(ZkFetchDscrResult)52600_storage)":{"encoding":"mapping","key":"t_bytes32","label":"mapping(bytes32 => struct CreditTreasuryPool.ZkFetchDscrResult)","numberOfBytes":"32","value":"t_struct(ZkFetchDscrResult)52600_storage"},"t_mapping(t_bytes32,t_uint256)":{"encoding":"mapping","key":"t_bytes32","label":"mapping(bytes32 => uint256)","numberOfBytes":"32","value":"t_uint256"},"t_struct(ZkFetchDscrResult)52600_storage":{"encoding":"inplace","label":"struct CreditTreasuryPool.ZkFetchDscrResult","numberOfBytes":"160","members":[{"astId":52591,"contract":"src/Loan/CreditTreasuryPool.sol:CreditTreasuryPool","label":"dscrValue","offset":0,"slot":"0","type":"t_uint256"},{"astId":52593,"contract":"src/Loan/CreditTreasuryPool.sol:CreditTreasuryPool","label":"interestRate","offset":0,"slot":"1","type":"t_uint256"},{"astId":52595,"contract":"src/Loan/CreditTreasuryPool.sol:CreditTreasuryPool","label":"proofHash","offset":0,"slot":"2","type":"t_bytes32"},{"astId":52597,"contract":"src/Loan/CreditTreasuryPool.sol:CreditTreasuryPool","label":"verifiedAt","offset":0,"slot":"3","type":"t_uint256"},{"astId":52599,"contract":"src/Loan/CreditTreasuryPool.sol:CreditTreasuryPool","label":"isValid","offset":0,"slot":"4","type":"t_bool"}]},"t_uint256":{"encoding":"inplace","label":"uint256","numberOfBytes":"32"}}},"id":70}