{
    "abi": [
        {
            "type": "function",
            "name": "APPROVER_ROLE",
            "inputs": [],
            "outputs": [
                {
                    "name": "",
                    "type": "bytes32",
                    "internalType": "bytes32"
                }
            ],
            "stateMutability": "view"
        },
        {
            "type": "function",
            "name": "DEFAULT_ADMIN_ROLE",
            "inputs": [],
            "outputs": [
                {
                    "name": "",
                    "type": "bytes32",
                    "internalType": "bytes32"
                }
            ],
            "stateMutability": "view"
        },
        {
            "type": "function",
            "name": "POOL_MANAGER_ROLE",
            "inputs": [],
            "outputs": [
                {
                    "name": "",
                    "type": "bytes32",
                    "internalType": "bytes32"
                }
            ],
            "stateMutability": "view"
        },
        {
            "type": "function",
            "name": "SYSTEM_ROLE",
            "inputs": [],
            "outputs": [
                {
                    "name": "",
                    "type": "bytes32",
                    "internalType": "bytes32"
                }
            ],
            "stateMutability": "view"
        },
        {
            "type": "function",
            "name": "UPGRADE_INTERFACE_VERSION",
            "inputs": [],
            "outputs": [
                {
                    "name": "",
                    "type": "string",
                    "internalType": "string"
                }
            ],
            "stateMutability": "view"
        },
        {
            "type": "function",
            "name": "activateLoan",
            "inputs": [
                {
                    "name": "_loanId",
                    "type": "bytes32",
                    "internalType": "bytes32"
                }
            ],
            "outputs": [],
            "stateMutability": "nonpayable"
        },
        {
            "type": "function",
            "name": "createLoan",
            "inputs": [
                {
                    "name": "_loanId",
                    "type": "bytes32",
                    "internalType": "bytes32"
                },
                {
                    "name": "_borrower",
                    "type": "address",
                    "internalType": "address"
                },
                {
                    "name": "_amount",
                    "type": "uint256",
                    "internalType": "uint256"
                },
                {
                    "name": "_interestRate",
                    "type": "uint256",
                    "internalType": "uint256"
                },
                {
                    "name": "_repaymentRemainingMonths",
                    "type": "uint256",
                    "internalType": "uint256"
                }
            ],
            "outputs": [],
            "stateMutability": "nonpayable"
        },
        {
            "type": "function",
            "name": "getNextRepayment",
            "inputs": [
                {
                    "name": "_loanId",
                    "type": "bytes32",
                    "internalType": "bytes32"
                }
            ],
            "outputs": [
                {
                    "name": "",
                    "type": "uint256",
                    "internalType": "uint256"
                },
                {
                    "name": "",
                    "type": "uint256",
                    "internalType": "uint256"
                }
            ],
            "stateMutability": "view"
        },
        {
            "type": "function",
            "name": "getRoleAdmin",
            "inputs": [
                {
                    "name": "role",
                    "type": "bytes32",
                    "internalType": "bytes32"
                }
            ],
            "outputs": [
                {
                    "name": "",
                    "type": "bytes32",
                    "internalType": "bytes32"
                }
            ],
            "stateMutability": "view"
        },
        {
            "type": "function",
            "name": "grantRole",
            "inputs": [
                {
                    "name": "role",
                    "type": "bytes32",
                    "internalType": "bytes32"
                },
                {
                    "name": "account",
                    "type": "address",
                    "internalType": "address"
                }
            ],
            "outputs": [],
            "stateMutability": "nonpayable"
        },
        {
            "type": "function",
            "name": "hasRole",
            "inputs": [
                {
                    "name": "role",
                    "type": "bytes32",
                    "internalType": "bytes32"
                },
                {
                    "name": "account",
                    "type": "address",
                    "internalType": "address"
                }
            ],
            "outputs": [
                {
                    "name": "",
                    "type": "bool",
                    "internalType": "bool"
                }
            ],
            "stateMutability": "view"
        },
        {
            "type": "function",
            "name": "initialize",
            "inputs": [
                {
                    "name": "_owner",
                    "type": "address",
                    "internalType": "address"
                },
                {
                    "name": "approvers",
                    "type": "address[]",
                    "internalType": "address[]"
                },
                {
                    "name": "_token",
                    "type": "address",
                    "internalType": "contract ERC20Upgradeable"
                }
            ],
            "outputs": [],
            "stateMutability": "nonpayable"
        },
        {
            "type": "function",
            "name": "loanAmounts",
            "inputs": [
                {
                    "name": "",
                    "type": "address",
                    "internalType": "address"
                }
            ],
            "outputs": [
                {
                    "name": "",
                    "type": "uint256",
                    "internalType": "uint256"
                }
            ],
            "stateMutability": "view"
        },
        {
            "type": "function",
            "name": "loanIdToActive",
            "inputs": [
                {
                    "name": "",
                    "type": "bytes32",
                    "internalType": "bytes32"
                }
            ],
            "outputs": [
                {
                    "name": "",
                    "type": "bool",
                    "internalType": "bool"
                }
            ],
            "stateMutability": "view"
        },
        {
            "type": "function",
            "name": "loanIdToAmount",
            "inputs": [
                {
                    "name": "",
                    "type": "bytes32",
                    "internalType": "bytes32"
                }
            ],
            "outputs": [
                {
                    "name": "",
                    "type": "uint256",
                    "internalType": "uint256"
                }
            ],
            "stateMutability": "view"
        },
        {
            "type": "function",
            "name": "loanIdToBorrower",
            "inputs": [
                {
                    "name": "",
                    "type": "bytes32",
                    "internalType": "bytes32"
                }
            ],
            "outputs": [
                {
                    "name": "",
                    "type": "address",
                    "internalType": "address"
                }
            ],
            "stateMutability": "view"
        },
        {
            "type": "function",
            "name": "loanIdToInterestAmount",
            "inputs": [
                {
                    "name": "",
                    "type": "bytes32",
                    "internalType": "bytes32"
                }
            ],
            "outputs": [
                {
                    "name": "",
                    "type": "uint256",
                    "internalType": "uint256"
                }
            ],
            "stateMutability": "view"
        },
        {
            "type": "function",
            "name": "loanIdToInterestRate",
            "inputs": [
                {
                    "name": "",
                    "type": "bytes32",
                    "internalType": "bytes32"
                }
            ],
            "outputs": [
                {
                    "name": "",
                    "type": "uint256",
                    "internalType": "uint256"
                }
            ],
            "stateMutability": "view"
        },
        {
            "type": "function",
            "name": "loanIdToInterestRepaymentAmount",
            "inputs": [
                {
                    "name": "",
                    "type": "bytes32",
                    "internalType": "bytes32"
                }
            ],
            "outputs": [
                {
                    "name": "",
                    "type": "uint256",
                    "internalType": "uint256"
                }
            ],
            "stateMutability": "view"
        },
        {
            "type": "function",
            "name": "loanIdToRepaymentAmount",
            "inputs": [
                {
                    "name": "",
                    "type": "bytes32",
                    "internalType": "bytes32"
                }
            ],
            "outputs": [
                {
                    "name": "",
                    "type": "uint256",
                    "internalType": "uint256"
                }
            ],
            "stateMutability": "view"
        },
        {
            "type": "function",
            "name": "loanIdToRepaymentRemainingMonths",
            "inputs": [
                {
                    "name": "",
                    "type": "bytes32",
                    "internalType": "bytes32"
                }
            ],
            "outputs": [
                {
                    "name": "",
                    "type": "uint256",
                    "internalType": "uint256"
                }
            ],
            "stateMutability": "view"
        },
        {
            "type": "function",
            "name": "makeRepayment",
            "inputs": [
                {
                    "name": "_loanId",
                    "type": "bytes32",
                    "internalType": "bytes32"
                }
            ],
            "outputs": [],
            "stateMutability": "nonpayable"
        },
        {
            "type": "function",
            "name": "owner",
            "inputs": [],
            "outputs": [
                {
                    "name": "",
                    "type": "address",
                    "internalType": "address"
                }
            ],
            "stateMutability": "view"
        },
        {
            "type": "function",
            "name": "proxiableUUID",
            "inputs": [],
            "outputs": [
                {
                    "name": "",
                    "type": "bytes32",
                    "internalType": "bytes32"
                }
            ],
            "stateMutability": "view"
        },
        {
            "type": "function",
            "name": "renounceOwnership",
            "inputs": [],
            "outputs": [],
            "stateMutability": "nonpayable"
        },
        {
            "type": "function",
            "name": "renounceRole",
            "inputs": [
                {
                    "name": "role",
                    "type": "bytes32",
                    "internalType": "bytes32"
                },
                {
                    "name": "callerConfirmation",
                    "type": "address",
                    "internalType": "address"
                }
            ],
            "outputs": [],
            "stateMutability": "nonpayable"
        },
        {
            "type": "function",
            "name": "revokeRole",
            "inputs": [
                {
                    "name": "role",
                    "type": "bytes32",
                    "internalType": "bytes32"
                },
                {
                    "name": "account",
                    "type": "address",
                    "internalType": "address"
                }
            ],
            "outputs": [],
            "stateMutability": "nonpayable"
        },
        {
            "type": "function",
            "name": "supportsInterface",
            "inputs": [
                {
                    "name": "interfaceId",
                    "type": "bytes4",
                    "internalType": "bytes4"
                }
            ],
            "outputs": [
                {
                    "name": "",
                    "type": "bool",
                    "internalType": "bool"
                }
            ],
            "stateMutability": "view"
        },
        {
            "type": "function",
            "name": "token",
            "inputs": [],
            "outputs": [
                {
                    "name": "",
                    "type": "address",
                    "internalType": "contract ERC20Upgradeable"
                }
            ],
            "stateMutability": "view"
        },
        {
            "type": "function",
            "name": "totalLentAmount",
            "inputs": [],
            "outputs": [
                {
                    "name": "",
                    "type": "uint256",
                    "internalType": "uint256"
                }
            ],
            "stateMutability": "view"
        },
        {
            "type": "function",
            "name": "transferFunds",
            "inputs": [
                {
                    "name": "to",
                    "type": "address",
                    "internalType": "address"
                },
                {
                    "name": "amount",
                    "type": "uint256",
                    "internalType": "uint256"
                }
            ],
            "outputs": [
                {
                    "name": "success",
                    "type": "bool",
                    "internalType": "bool"
                }
            ],
            "stateMutability": "nonpayable"
        },
        {
            "type": "function",
            "name": "transferOwnership",
            "inputs": [
                {
                    "name": "newOwner",
                    "type": "address",
                    "internalType": "address"
                }
            ],
            "outputs": [],
            "stateMutability": "nonpayable"
        },
        {
            "type": "function",
            "name": "updateLoanInterestRate",
            "inputs": [
                {
                    "name": "_loanId",
                    "type": "bytes32",
                    "internalType": "bytes32"
                },
                {
                    "name": "_interestRate",
                    "type": "uint256",
                    "internalType": "uint256"
                }
            ],
            "outputs": [],
            "stateMutability": "nonpayable"
        },
        {
            "type": "function",
            "name": "updateLoanRepaymentRemainingMonths",
            "inputs": [
                {
                    "name": "_loanId",
                    "type": "bytes32",
                    "internalType": "bytes32"
                },
                {
                    "name": "_repaymentRemainingMonths",
                    "type": "uint256",
                    "internalType": "uint256"
                }
            ],
            "outputs": [],
            "stateMutability": "nonpayable"
        },
        {
            "type": "function",
            "name": "upgradeToAndCall",
            "inputs": [
                {
                    "name": "newImplementation",
                    "type": "address",
                    "internalType": "address"
                },
                {
                    "name": "data",
                    "type": "bytes",
                    "internalType": "bytes"
                }
            ],
            "outputs": [],
            "stateMutability": "payable"
        },
        {
            "type": "event",
            "name": "Initialized",
            "inputs": [
                {
                    "name": "version",
                    "type": "uint64",
                    "indexed": false,
                    "internalType": "uint64"
                }
            ],
            "anonymous": false
        },
        {
            "type": "event",
            "name": "LoanActivated",
            "inputs": [
                {
                    "name": "loanId",
                    "type": "bytes32",
                    "indexed": false,
                    "internalType": "bytes32"
                },
                {
                    "name": "borrower",
                    "type": "address",
                    "indexed": false,
                    "internalType": "address"
                },
                {
                    "name": "amount",
                    "type": "uint256",
                    "indexed": false,
                    "internalType": "uint256"
                }
            ],
            "anonymous": false
        },
        {
            "type": "event",
            "name": "LoanCreated",
            "inputs": [
                {
                    "name": "loanId",
                    "type": "bytes32",
                    "indexed": false,
                    "internalType": "bytes32"
                },
                {
                    "name": "borrower",
                    "type": "address",
                    "indexed": false,
                    "internalType": "address"
                },
                {
                    "name": "amount",
                    "type": "uint256",
                    "indexed": false,
                    "internalType": "uint256"
                },
                {
                    "name": "interestRate",
                    "type": "uint256",
                    "indexed": false,
                    "internalType": "uint256"
                },
                {
                    "name": "repaymentRemainingMonths",
                    "type": "uint256",
                    "indexed": false,
                    "internalType": "uint256"
                }
            ],
            "anonymous": false
        },
        {
            "type": "event",
            "name": "LoanInterestRateUpdated",
            "inputs": [
                {
                    "name": "loanId",
                    "type": "bytes32",
                    "indexed": false,
                    "internalType": "bytes32"
                },
                {
                    "name": "interestRate",
                    "type": "uint256",
                    "indexed": false,
                    "internalType": "uint256"
                }
            ],
            "anonymous": false
        },
        {
            "type": "event",
            "name": "LoanRepaymentMade",
            "inputs": [
                {
                    "name": "loanId",
                    "type": "bytes32",
                    "indexed": false,
                    "internalType": "bytes32"
                },
                {
                    "name": "borrower",
                    "type": "address",
                    "indexed": false,
                    "internalType": "address"
                },
                {
                    "name": "repaymentAmount",
                    "type": "uint256",
                    "indexed": false,
                    "internalType": "uint256"
                },
                {
                    "name": "interestAmount",
                    "type": "uint256",
                    "indexed": false,
                    "internalType": "uint256"
                }
            ],
            "anonymous": false
        },
        {
            "type": "event",
            "name": "LoanRepaymentRemainingMonthsUpdated",
            "inputs": [
                {
                    "name": "loanId",
                    "type": "bytes32",
                    "indexed": false,
                    "internalType": "bytes32"
                },
                {
                    "name": "repaymentRemainingMonths",
                    "type": "uint256",
                    "indexed": false,
                    "internalType": "uint256"
                }
            ],
            "anonymous": false
        },
        {
            "type": "event",
            "name": "OwnershipTransferred",
            "inputs": [
                {
                    "name": "previousOwner",
                    "type": "address",
                    "indexed": true,
                    "internalType": "address"
                },
                {
                    "name": "newOwner",
                    "type": "address",
                    "indexed": true,
                    "internalType": "address"
                }
            ],
            "anonymous": false
        },
        {
            "type": "event",
            "name": "RoleAdminChanged",
            "inputs": [
                {
                    "name": "role",
                    "type": "bytes32",
                    "indexed": true,
                    "internalType": "bytes32"
                },
                {
                    "name": "previousAdminRole",
                    "type": "bytes32",
                    "indexed": true,
                    "internalType": "bytes32"
                },
                {
                    "name": "newAdminRole",
                    "type": "bytes32",
                    "indexed": true,
                    "internalType": "bytes32"
                }
            ],
            "anonymous": false
        },
        {
            "type": "event",
            "name": "RoleGranted",
            "inputs": [
                {
                    "name": "role",
                    "type": "bytes32",
                    "indexed": true,
                    "internalType": "bytes32"
                },
                {
                    "name": "account",
                    "type": "address",
                    "indexed": true,
                    "internalType": "address"
                },
                {
                    "name": "sender",
                    "type": "address",
                    "indexed": true,
                    "internalType": "address"
                }
            ],
            "anonymous": false
        },
        {
            "type": "event",
            "name": "RoleRevoked",
            "inputs": [
                {
                    "name": "role",
                    "type": "bytes32",
                    "indexed": true,
                    "internalType": "bytes32"
                },
                {
                    "name": "account",
                    "type": "address",
                    "indexed": true,
                    "internalType": "address"
                },
                {
                    "name": "sender",
                    "type": "address",
                    "indexed": true,
                    "internalType": "address"
                }
            ],
            "anonymous": false
        },
        {
            "type": "event",
            "name": "Upgraded",
            "inputs": [
                {
                    "name": "implementation",
                    "type": "address",
                    "indexed": true,
                    "internalType": "address"
                }
            ],
            "anonymous": false
        },
        {
            "type": "error",
            "name": "AccessControlBadConfirmation",
            "inputs": []
        },
        {
            "type": "error",
            "name": "AccessControlUnauthorizedAccount",
            "inputs": [
                {
                    "name": "account",
                    "type": "address",
                    "internalType": "address"
                },
                {
                    "name": "neededRole",
                    "type": "bytes32",
                    "internalType": "bytes32"
                }
            ]
        },
        {
            "type": "error",
            "name": "AddressEmptyCode",
            "inputs": [
                {
                    "name": "target",
                    "type": "address",
                    "internalType": "address"
                }
            ]
        },
        {
            "type": "error",
            "name": "ERC1967InvalidImplementation",
            "inputs": [
                {
                    "name": "implementation",
                    "type": "address",
                    "internalType": "address"
                }
            ]
        },
        {
            "type": "error",
            "name": "ERC1967NonPayable",
            "inputs": []
        },
        {
            "type": "error",
            "name": "FailedCall",
            "inputs": []
        },
        {
            "type": "error",
            "name": "InvalidInitialization",
            "inputs": []
        },
        {
            "type": "error",
            "name": "MustHaveApproverRole",
            "inputs": [
                {
                    "name": "account",
                    "type": "address",
                    "internalType": "address"
                }
            ]
        },
        {
            "type": "error",
            "name": "NotInitializing",
            "inputs": []
        },
        {
            "type": "error",
            "name": "OwnableInvalidOwner",
            "inputs": [
                {
                    "name": "owner",
                    "type": "address",
                    "internalType": "address"
                }
            ]
        },
        {
            "type": "error",
            "name": "OwnableUnauthorizedAccount",
            "inputs": [
                {
                    "name": "account",
                    "type": "address",
                    "internalType": "address"
                }
            ]
        },
        {
            "type": "error",
            "name": "UUPSUnauthorizedCallContext",
            "inputs": []
        },
        {
            "type": "error",
            "name": "UUPSUnsupportedProxiableUUID",
            "inputs": [
                {
                    "name": "slot",
                    "type": "bytes32",
                    "internalType": "bytes32"
                }
            ]
        }
    ],
    "bytecode": {
        "object": "0x60a060405230608052348015610013575f80fd5b5060805161218661003a5f395f81816117020152818161172b015261186a01526121865ff3fe6080604052600436106101fb575f3560e01c8063715018a611610113578063a217fddf1161009d578063d547741f1161006d578063d547741f14610678578063da23f61d14610697578063dc5b68a6146106c2578063f2fde38b146106e1578063fc0c546a14610700575f80fd5b8063a217fddf146105de578063ad3cb1cc146105f1578063c3efa28a1461062e578063c56b685014610659575f80fd5b80638da5cb5b116100e35780638da5cb5b146105055780638f78e2f01461054157806391d148541461056c578063990dc9db1461058b5780639b9818ca146105aa575f80fd5b8063715018a61461045757806375071d2a1461046b578063751247f01461048b578063889ed68a146104b9575f80fd5b80634245962b1161019457806351be16a31161016457806351be16a3146103ba57806352d1902d146103e557806356d73568146103f957806359694e14146104195780635c3d6a9214610438575f80fd5b80634245962b1461034057806343f7f740146103735780634f1ef286146103885780634fe9a7e31461039b575f80fd5b8063183c87e7116101cf578063183c87e7146102b8578063248a9ca3146102e35780632f2ff15d1461030257806336568abe14610321575f80fd5b8062396354146101ff57806301ffc9a71461023d5780630596313b1461026c5780630a2d08541461028d575b5f80fd5b34801561020a575f80fd5b5061022a610219366004611c44565b60066020525f908152604090205481565b6040519081526020015b60405180910390f35b348015610248575f80fd5b5061025c610257366004611c5b565b61071e565b6040519015158152602001610234565b348015610277575f80fd5b5061028b610286366004611c82565b610754565b005b348015610298575f80fd5b5061022a6102a7366004611c44565b60056020525f908152604090205481565b3480156102c3575f80fd5b5061022a6102d2366004611c44565b60036020525f908152604090205481565b3480156102ee575f80fd5b5061022a6102fd366004611c44565b6108f8565b34801561030d575f80fd5b5061028b61031c366004611cb6565b610918565b34801561032c575f80fd5b5061028b61033b366004611cb6565b61093a565b34801561034b575f80fd5b5061022a7f408a36151f841709116a4e8aca4e0202874f7f54687dcb863b1ea4672dc9d8cf81565b34801561037e575f80fd5b5061022a600a5481565b61028b610396366004611d29565b610972565b3480156103a6575f80fd5b5061028b6103b5366004611dcb565b610991565b3480156103c5575f80fd5b5061022a6103d4366004611c44565b60076020525f908152604090205481565b3480156103f0575f80fd5b5061022a610b25565b348015610404575f80fd5b5061022a5f8051602061213183398151915281565b348015610424575f80fd5b5061028b610433366004611c44565b610b40565b348015610443575f80fd5b5061028b610452366004611c44565b610d3b565b348015610462575f80fd5b5061028b61109e565b348015610476575f80fd5b5061022a5f805160206120d183398151915281565b348015610496575f80fd5b5061025c6104a5366004611c44565b60016020525f908152604090205460ff1681565b3480156104c4575f80fd5b506104ed6104d3366004611c44565b60026020525f90815260409020546001600160a01b031681565b6040516001600160a01b039091168152602001610234565b348015610510575f80fd5b507f9016d09d72d40fdae2fd8ceac6b6234c7706214fd39c1cd1e609a0528c199300546001600160a01b03166104ed565b34801561054c575f80fd5b5061022a61055b366004611e0f565b60096020525f908152604090205481565b348015610577575f80fd5b5061025c610586366004611cb6565b6110b1565b348015610596575f80fd5b5061025c6105a5366004611e2a565b6110e7565b3480156105b5575f80fd5b506105c96105c4366004611c44565b61116a565b60408051928352602083019190915201610234565b3480156105e9575f80fd5b5061022a5f81565b3480156105fc575f80fd5b50610621604051806040016040528060058152602001640352e302e360dc1b81525081565b6040516102349190611e76565b348015610639575f80fd5b5061022a610648366004611c44565b60086020525f908152604090205481565b348015610664575f80fd5b5061028b610673366004611c82565b6111f4565b348015610683575f80fd5b5061028b610692366004611cb6565b611384565b3480156106a2575f80fd5b5061022a6106b1366004611c44565b60046020525f908152604090205481565b3480156106cd575f80fd5b5061028b6106dc366004611eb8565b6113a0565b3480156106ec575f80fd5b5061028b6106fb366004611e0f565b611596565b34801561070b575f80fd5b505f546104ed906001600160a01b031681565b5f6001600160e01b03198216637965db0b60e01b148061074e57506301ffc9a760e01b6001600160e01b03198316145b92915050565b61076b5f805160206120d1833981519152336110b1565b8061078857506107885f80516020612131833981519152336110b1565b6107ad5760405162461bcd60e51b81526004016107a490611f89565b60405180910390fd5b5f8281526002602052604090205482906001600160a01b03166107e25760405162461bcd60e51b81526004016107a490611fce565b5f838152600360209081526040808320546006909252909120548491116108405760405162461bcd60e51b8152602060048201526012602482015271131bd85b881a5cc8199d5b1b1e481c185a5960721b60448201526064016107a4565b5f84815260056020908152604080832086905560038252808320546006909252822054909161086f828461200f565b5f888152600860205260409020549091506201d4c09061088f8884612022565b6108999190612022565b6108a39190612039565b5f888152600460209081526040918290209290925580518981529182018890527f0b24a7dcfd1946a0184ebba0acf8fea0c9a8e6d11e3ff854102f2c078ced3cbe91015b60405180910390a150505050505050565b5f9081525f80516020612111833981519152602052604090206001015490565b610921826108f8565b61092a816115d3565b61093483836115dd565b50505050565b6001600160a01b03811633146109635760405163334bd91960e11b815260040160405180910390fd5b61096d828261167e565b505050565b61097a6116f7565b6109838261179b565b61098d82826117a3565b5050565b6109a85f805160206120d1833981519152336110b1565b806109c557506109c55f80516020612131833981519152336110b1565b6109e15760405162461bcd60e51b81526004016107a490611f89565b5f8581526002602052604090205485906001600160a01b031615610a3d5760405162461bcd60e51b81526020600482015260136024820152724c6f616e20616c72656164792065786973747360681b60448201526064016107a4565b5f86815260026020908152604080832080546001600160a01b0319166001600160a01b038a16179055600390915290208490556201d4c082610a7f8587612022565b610a899190612022565b610a939190612039565b5f878152600460209081526040808320939093556005815282822086905560068152828220829055600881529082902084905581518881526001600160a01b0388169181019190915290810185905260608101849052608081018390527fe960062a0ba868077d9ca9d5a3ba16f32ee978fef2a58df3e1385a6f7f3d6a149060a00160405180910390a1505050505050565b5f610b2e61185f565b505f805160206120f183398151915290565b610b575f805160206120d1833981519152336110b1565b80610b745750610b745f80516020612131833981519152336110b1565b610b905760405162461bcd60e51b81526004016107a490611f89565b5f8181526002602052604090205481906001600160a01b0316610bc55760405162461bcd60e51b81526004016107a490611fce565b5f82815260016020526040902054829060ff1615610c1c5760405162461bcd60e51b8152602060048201526014602482015273131bd85b88185b1c9958591e4818dc99585d195960621b60448201526064016107a4565b5f838152600160208181526040808420805460ff191690931790925560039052812054600a805491928392610c52908490612058565b90915550505f8054858252600260205260409182902054915163a9059cbb60e01b81526001600160a01b0392831660048201526024810184905291169063a9059cbb906044016020604051808303815f875af1158015610cb4573d5f803e3d5ffd5b505050506040513d601f19601f82011682018060405250810190610cd8919061206b565b505f848152600260209081526040918290205482518781526001600160a01b03909116918101919091529081018290527fee2def75604a7ee0f616223c636b6674a0cf1e2b1d6a12d18e06144a2aa98ba49060600160405180910390a150505050565b5f8181526002602052604090205481906001600160a01b0316610d705760405162461bcd60e51b81526004016107a490611fce565b5f82815260016020526040902054829060ff16610dc45760405162461bcd60e51b81526020600482015260126024820152714c6f616e206973206e6f742061637469766560701b60448201526064016107a4565b5f838152600260205260409020546001600160a01b03163314610e335760405162461bcd60e51b815260206004820152602160248201527f4f6e6c7920626f72726f7765722063616e206d616b652072657061796d656e746044820152607360f81b60648201526084016107a4565b5f80610e3e8561116a565b90925090505f610e4e8284612058565b5f8781526006602090815260408083205460039092528220549293509091610e76919061200f565b90505f8111610ec75760405162461bcd60e51b815260206004820152601c60248201527f4c6f616e20697320616c72656164792066756c6c79207265706169640000000060448201526064016107a4565b5f8211610f165760405162461bcd60e51b815260206004820152601d60248201527f416d6f756e74206d7573742062652067726561746572207468616e203000000060448201526064016107a4565b83600a5f828254610f27919061200f565b90915550505f546040516323b872dd60e01b8152336004820152306024820152604481018490526001600160a01b03909116906323b872dd906064016020604051808303815f875af1158015610f7f573d5f803e3d5ffd5b505050506040513d601f19601f82011682018060405250810190610fa3919061206b565b610fe15760405162461bcd60e51b815260206004820152600f60248201526e151c985b9cd9995c8819985a5b1959608a1b60448201526064016107a4565b5f8781526006602052604081208054869290610ffe908490612058565b90915550505f8781526007602052604081208054859290611020908490612058565b90915550505f878152600360209081526040808320546006909252909120541061105a575f878152600160205260409020805460ff191690555b60408051888152336020820152908101859052606081018490527fc39b9957b5245fa5f361e29d4e04b204db93dc7f3d78bbadeb9e7809d2d77eca906080016108e7565b6110a66118a8565b6110af5f611903565b565b5f9182525f80516020612111833981519152602090815260408084206001600160a01b0393909316845291905290205460ff1690565b5f6110f06118a8565b5f5460405163a9059cbb60e01b81526001600160a01b038581166004830152602482018590529091169063a9059cbb906044016020604051808303815f875af115801561113f573d5f803e3d5ffd5b505050506040513d601f19601f82011682018060405250810190611163919061206b565b9392505050565b5f818152600360209081526040808320546004835281842054600690935290832054839290838161119b8486612058565b6111a5919061200f565b5f8881526005602090815260408083205460089092529091205491925090826111d1826201d4c0612022565b6111db8486612022565b6111e59190612039565b97509750505050505050915091565b61120b5f805160206120d1833981519152336110b1565b8061122857506112285f80516020612131833981519152336110b1565b6112445760405162461bcd60e51b81526004016107a490611f89565b5f8281526002602052604090205482906001600160a01b03166112795760405162461bcd60e51b81526004016107a490611fce565b5f838152600360209081526040808320546006909252909120548491116112d75760405162461bcd60e51b8152602060048201526012602482015271131bd85b881a5cc8199d5b1b1e481c185a5960721b60448201526064016107a4565b5f848152600860209081526040808320869055600382528083205460069092528220549091611306828461200f565b5f888152600560205260409020549091506201d4c09087906113289084612022565b6113329190612022565b61133c9190612039565b5f888152600460209081526040918290209290925580518981529182018890527fd500c7a7d45dd0769d8a427ddb2dbce05b6a44e1f9b1174dd966f6678c0d1bfd91016108e7565b61138d826108f8565b611396816115d3565b610934838361167e565b7ff0c57e16840df040f15088dc2f81fe391c3923bec73e23a9662efc9c229c6a008054600160401b810460ff16159067ffffffffffffffff165f811580156113e55750825b90505f8267ffffffffffffffff1660011480156114015750303b155b90508115801561140f575080155b1561142d5760405163f92ee8a960e01b815260040160405180910390fd5b845467ffffffffffffffff19166001178555831561145757845460ff60401b1916600160401b1785555b61146088611973565b611468611984565b611470611984565b61147a5f896115dd565b506114925f805160206121318339815191525f61198c565b6114a95f80516020612131833981519152896115dd565b506114d47f408a36151f841709116a4e8aca4e0202874f7f54687dcb863b1ea4672dc9d8cf5f61198c565b5f5b875181101561152b576115227f408a36151f841709116a4e8aca4e0202874f7f54687dcb863b1ea4672dc9d8cf8983815181106115155761151561208a565b60200260200101516115dd565b506001016114d6565b505f80546001600160a01b0319166001600160a01b038816179055831561158c57845460ff60401b19168555604051600181527fc7f505b2f371ae2175ee4913f4499e1f2633a7b5936321eed1cdaeb6115181d29060200160405180910390a15b5050505050505050565b61159e6118a8565b6001600160a01b0381166115c757604051631e4fbdf760e01b81525f60048201526024016107a4565b6115d081611903565b50565b6115d081336119ec565b5f5f805160206121118339815191526115f684846110b1565b611675575f848152602082815260408083206001600160a01b03871684529091529020805460ff1916600117905561162b3390565b6001600160a01b0316836001600160a01b0316857f2f8788117e7eff1d82e926ec794901d17c78024a50270940304540a733656f0d60405160405180910390a4600191505061074e565b5f91505061074e565b5f5f8051602061211183398151915261169784846110b1565b15611675575f848152602082815260408083206001600160a01b0387168085529252808320805460ff1916905551339287917ff6391f5c32d9c69d2a47ea670b442974b53935d1edc7fd64eb21e047a839171b9190a4600191505061074e565b306001600160a01b037f000000000000000000000000000000000000000000000000000000000000000016148061177d57507f00000000000000000000000000000000000000000000000000000000000000006001600160a01b03166117715f805160206120f1833981519152546001600160a01b031690565b6001600160a01b031614155b156110af5760405163703e46dd60e11b815260040160405180910390fd5b6115d06118a8565b816001600160a01b03166352d1902d6040518163ffffffff1660e01b8152600401602060405180830381865afa9250505080156117fd575060408051601f3d908101601f191682019092526117fa9181019061209e565b60015b61182557604051634c9c8ce360e01b81526001600160a01b03831660048201526024016107a4565b5f805160206120f1833981519152811461185557604051632a87526960e21b8152600481018290526024016107a4565b61096d8383611a25565b306001600160a01b037f000000000000000000000000000000000000000000000000000000000000000016146110af5760405163703e46dd60e11b815260040160405180910390fd5b336118da7f9016d09d72d40fdae2fd8ceac6b6234c7706214fd39c1cd1e609a0528c199300546001600160a01b031690565b6001600160a01b0316146110af5760405163118cdaa760e01b81523360048201526024016107a4565b7f9016d09d72d40fdae2fd8ceac6b6234c7706214fd39c1cd1e609a0528c19930080546001600160a01b031981166001600160a01b03848116918217845560405192169182907f8be0079c531659141344cd1fd0a4f28419497f9722a3daafe3b4186f6b6457e0905f90a3505050565b61197b611a7a565b6115d081611ac3565b6110af611a7a565b5f805160206121118339815191525f6119a4846108f8565b5f85815260208490526040808220600101869055519192508491839187917fbd79b86ffe0ab8e8776151514217cd7cacd52c909f66475c3af44e129f0b00ff9190a450505050565b6119f682826110b1565b61098d5760405163e2517d3f60e01b81526001600160a01b0382166004820152602481018390526044016107a4565b611a2e82611acb565b6040516001600160a01b038316907fbc7cd75a20ee27fd9adebab32041f755214dbc6bffa90cc0225b39da2e5c2d3b905f90a2805115611a725761096d8282611b2e565b61098d611ba0565b7ff0c57e16840df040f15088dc2f81fe391c3923bec73e23a9662efc9c229c6a0054600160401b900460ff166110af57604051631afcd79f60e31b815260040160405180910390fd5b61159e611a7a565b806001600160a01b03163b5f03611b0057604051634c9c8ce360e01b81526001600160a01b03821660048201526024016107a4565b5f805160206120f183398151915280546001600160a01b0319166001600160a01b0392909216919091179055565b60605f80846001600160a01b031684604051611b4a91906120b5565b5f60405180830381855af49150503d805f8114611b82576040519150601f19603f3d011682016040523d82523d5f602084013e611b87565b606091505b5091509150611b97858383611bbf565b95945050505050565b34156110af5760405163b398979f60e01b815260040160405180910390fd5b606082611bd457611bcf82611c1b565b611163565b8151158015611beb57506001600160a01b0384163b155b15611c1457604051639996b31560e01b81526001600160a01b03851660048201526024016107a4565b5092915050565b805115611c2b5780518082602001fd5b60405163d6bda27560e01b815260040160405180910390fd5b5f60208284031215611c54575f80fd5b5035919050565b5f60208284031215611c6b575f80fd5b81356001600160e01b031981168114611163575f80fd5b5f8060408385031215611c93575f80fd5b50508035926020909101359150565b6001600160a01b03811681146115d0575f80fd5b5f8060408385031215611cc7575f80fd5b823591506020830135611cd981611ca2565b809150509250929050565b634e487b7160e01b5f52604160045260245ffd5b604051601f8201601f1916810167ffffffffffffffff81118282101715611d2157611d21611ce4565b604052919050565b5f8060408385031215611d3a575f80fd5b8235611d4581611ca2565b915060208381013567ffffffffffffffff80821115611d62575f80fd5b818601915086601f830112611d75575f80fd5b813581811115611d8757611d87611ce4565b611d99601f8201601f19168501611cf8565b91508082528784828501011115611dae575f80fd5b80848401858401375f848284010152508093505050509250929050565b5f805f805f60a08688031215611ddf575f80fd5b853594506020860135611df181611ca2565b94979496505050506040830135926060810135926080909101359150565b5f60208284031215611e1f575f80fd5b813561116381611ca2565b5f8060408385031215611e3b575f80fd5b8235611e4681611ca2565b946020939093013593505050565b5f5b83811015611e6e578181015183820152602001611e56565b50505f910152565b602081525f8251806020840152611e94816040850160208701611e54565b601f01601f19169190910160400192915050565b8035611eb381611ca2565b919050565b5f805f60608486031215611eca575f80fd5b8335611ed581611ca2565b925060208481013567ffffffffffffffff80821115611ef2575f80fd5b818701915087601f830112611f05575f80fd5b813581811115611f1757611f17611ce4565b8060051b9150611f28848301611cf8565b818152918301840191848101908a841115611f41575f80fd5b938501935b83851015611f6b5784359250611f5b83611ca2565b8282529385019390850190611f46565b809750505050505050611f8060408501611ea8565b90509250925092565b60208082526025908201527f4d75737420686176652073797374656d206f7220706f6f6c206d616e6167657260408201526420726f6c6560d81b606082015260800190565b602080825260139082015272131bd85b88191bd95cc81b9bdd08195e1a5cdd606a1b604082015260600190565b634e487b7160e01b5f52601160045260245ffd5b8181038181111561074e5761074e611ffb565b808202811582820484141761074e5761074e611ffb565b5f8261205357634e487b7160e01b5f52601260045260245ffd5b500490565b8082018082111561074e5761074e611ffb565b5f6020828403121561207b575f80fd5b81518015158114611163575f80fd5b634e487b7160e01b5f52603260045260245ffd5b5f602082840312156120ae575f80fd5b5051919050565b5f82516120c6818460208701611e54565b919091019291505056fe5719df9ef2c4678b547f89e4f5ae410dbf400fc51cf3ded434c55f6adea2c43f360894a13ba1a3210667c828492db98dca3e2076cc3735a920a3ca505d382bbc02dd7bc7dec4dceedda775e58dd541e08a116c6c53815c0bd028192f7b6268006077685936c8169d09204a1d97db12e41713588c38e1d29a61867d3dcee98affa264697066735822122058425495656f81545e9b4a009194767dcf78bf293f45d39e1e46cf107abd880a64736f6c63430008160033",
        "linkReferences": {}
    },
    "methodIdentifiers": {
        "APPROVER_ROLE()": "4245962b",
        "DEFAULT_ADMIN_ROLE()": "a217fddf",
        "POOL_MANAGER_ROLE()": "56d73568",
        "SYSTEM_ROLE()": "75071d2a",
        "UPGRADE_INTERFACE_VERSION()": "ad3cb1cc",
        "activateLoan(bytes32)": "59694e14",
        "createLoan(bytes32,address,uint256,uint256,uint256)": "4fe9a7e3",
        "getNextRepayment(bytes32)": "9b9818ca",
        "getRoleAdmin(bytes32)": "248a9ca3",
        "grantRole(bytes32,address)": "2f2ff15d",
        "hasRole(bytes32,address)": "91d14854",
        "initialize(address,address[],address)": "dc5b68a6",
        "loanAmounts(address)": "8f78e2f0",
        "loanIdToActive(bytes32)": "751247f0",
        "loanIdToAmount(bytes32)": "183c87e7",
        "loanIdToBorrower(bytes32)": "889ed68a",
        "loanIdToInterestAmount(bytes32)": "da23f61d",
        "loanIdToInterestRate(bytes32)": "0a2d0854",
        "loanIdToInterestRepaymentAmount(bytes32)": "51be16a3",
        "loanIdToRepaymentAmount(bytes32)": "00396354",
        "loanIdToRepaymentRemainingMonths(bytes32)": "c3efa28a",
        "makeRepayment(bytes32)": "5c3d6a92",
        "owner()": "8da5cb5b",
        "proxiableUUID()": "52d1902d",
        "renounceOwnership()": "715018a6",
        "renounceRole(bytes32,address)": "36568abe",
        "revokeRole(bytes32,address)": "d547741f",
        "supportsInterface(bytes4)": "01ffc9a7",
        "token()": "fc0c546a",
        "totalLentAmount()": "43f7f740",
        "transferFunds(address,uint256)": "990dc9db",
        "transferOwnership(address)": "f2fde38b",
        "updateLoanInterestRate(bytes32,uint256)": "0596313b",
        "updateLoanRepaymentRemainingMonths(bytes32,uint256)": "c56b6850",
        "upgradeToAndCall(address,bytes)": "4f1ef286"
    },
    "storageLayout": {
        "storage": [
            {
                "astId": 40228,
                "contract": "src/Loan/SimpleLoanPool.sol:SimpleLoanPool",
                "label": "token",
                "offset": 0,
                "slot": "0",
                "type": "t_contract(ERC20Upgradeable)38091"
            },
            {
                "astId": 40232,
                "contract": "src/Loan/SimpleLoanPool.sol:SimpleLoanPool",
                "label": "loanIdToActive",
                "offset": 0,
                "slot": "1",
                "type": "t_mapping(t_bytes32,t_bool)"
            },
            {
                "astId": 40236,
                "contract": "src/Loan/SimpleLoanPool.sol:SimpleLoanPool",
                "label": "loanIdToBorrower",
                "offset": 0,
                "slot": "2",
                "type": "t_mapping(t_bytes32,t_address)"
            },
            {
                "astId": 40240,
                "contract": "src/Loan/SimpleLoanPool.sol:SimpleLoanPool",
                "label": "loanIdToAmount",
                "offset": 0,
                "slot": "3",
                "type": "t_mapping(t_bytes32,t_uint256)"
            },
            {
                "astId": 40244,
                "contract": "src/Loan/SimpleLoanPool.sol:SimpleLoanPool",
                "label": "loanIdToInterestAmount",
                "offset": 0,
                "slot": "4",
                "type": "t_mapping(t_bytes32,t_uint256)"
            },
            {
                "astId": 40248,
                "contract": "src/Loan/SimpleLoanPool.sol:SimpleLoanPool",
                "label": "loanIdToInterestRate",
                "offset": 0,
                "slot": "5",
                "type": "t_mapping(t_bytes32,t_uint256)"
            },
            {
                "astId": 40252,
                "contract": "src/Loan/SimpleLoanPool.sol:SimpleLoanPool",
                "label": "loanIdToRepaymentAmount",
                "offset": 0,
                "slot": "6",
                "type": "t_mapping(t_bytes32,t_uint256)"
            },
            {
                "astId": 40256,
                "contract": "src/Loan/SimpleLoanPool.sol:SimpleLoanPool",
                "label": "loanIdToInterestRepaymentAmount",
                "offset": 0,
                "slot": "7",
                "type": "t_mapping(t_bytes32,t_uint256)"
            },
            {
                "astId": 40260,
                "contract": "src/Loan/SimpleLoanPool.sol:SimpleLoanPool",
                "label": "loanIdToRepaymentRemainingMonths",
                "offset": 0,
                "slot": "8",
                "type": "t_mapping(t_bytes32,t_uint256)"
            },
            {
                "astId": 40264,
                "contract": "src/Loan/SimpleLoanPool.sol:SimpleLoanPool",
                "label": "loanAmounts",
                "offset": 0,
                "slot": "9",
                "type": "t_mapping(t_address,t_uint256)"
            },
            {
                "astId": 40266,
                "contract": "src/Loan/SimpleLoanPool.sol:SimpleLoanPool",
                "label": "totalLentAmount",
                "offset": 0,
                "slot": "10",
                "type": "t_uint256"
            }
        ],
        "types": {
            "t_address": {
                "encoding": "inplace",
                "label": "address",
                "numberOfBytes": "20"
            },
            "t_bool": {
                "encoding": "inplace",
                "label": "bool",
                "numberOfBytes": "1"
            },
            "t_bytes32": {
                "encoding": "inplace",
                "label": "bytes32",
                "numberOfBytes": "32"
            },
            "t_contract(ERC20Upgradeable)38091": {
                "encoding": "inplace",
                "label": "contract ERC20Upgradeable",
                "numberOfBytes": "20"
            },
            "t_mapping(t_address,t_uint256)": {
                "encoding": "mapping",
                "key": "t_address",
                "label": "mapping(address => uint256)",
                "numberOfBytes": "32",
                "value": "t_uint256"
            },
            "t_mapping(t_bytes32,t_address)": {
                "encoding": "mapping",
                "key": "t_bytes32",
                "label": "mapping(bytes32 => address)",
                "numberOfBytes": "32",
                "value": "t_address"
            },
            "t_mapping(t_bytes32,t_bool)": {
                "encoding": "mapping",
                "key": "t_bytes32",
                "label": "mapping(bytes32 => bool)",
                "numberOfBytes": "32",
                "value": "t_bool"
            },
            "t_mapping(t_bytes32,t_uint256)": {
                "encoding": "mapping",
                "key": "t_bytes32",
                "label": "mapping(bytes32 => uint256)",
                "numberOfBytes": "32",
                "value": "t_uint256"
            },
            "t_uint256": {
                "encoding": "inplace",
                "label": "uint256",
                "numberOfBytes": "32"
            }
        }
    },
    "id": 45
}