{
    "abi": [
        {
            "type": "function",
            "name": "BURNER_ROLE",
            "inputs": [],
            "outputs": [
                {
                    "name": "",
                    "type": "bytes32",
                    "internalType": "bytes32"
                }
            ],
            "stateMutability": "view"
        },
        {
            "type": "function",
            "name": "DEFAULT_ADMIN_ROLE",
            "inputs": [],
            "outputs": [
                {
                    "name": "",
                    "type": "bytes32",
                    "internalType": "bytes32"
                }
            ],
            "stateMutability": "view"
        },
        {
            "type": "function",
            "name": "MINTER_ROLE",
            "inputs": [],
            "outputs": [
                {
                    "name": "",
                    "type": "bytes32",
                    "internalType": "bytes32"
                }
            ],
            "stateMutability": "view"
        },
        {
            "type": "function",
            "name": "PAUSER_ROLE",
            "inputs": [],
            "outputs": [
                {
                    "name": "",
                    "type": "bytes32",
                    "internalType": "bytes32"
                }
            ],
            "stateMutability": "view"
        },
        {
            "type": "function",
            "name": "UPGRADE_INTERFACE_VERSION",
            "inputs": [],
            "outputs": [
                {
                    "name": "",
                    "type": "string",
                    "internalType": "string"
                }
            ],
            "stateMutability": "view"
        },
        {
            "type": "function",
            "name": "allowance",
            "inputs": [
                {
                    "name": "owner",
                    "type": "address",
                    "internalType": "address"
                },
                {
                    "name": "spender",
                    "type": "address",
                    "internalType": "address"
                }
            ],
            "outputs": [
                {
                    "name": "",
                    "type": "uint256",
                    "internalType": "uint256"
                }
            ],
            "stateMutability": "view"
        },
        {
            "type": "function",
            "name": "approve",
            "inputs": [
                {
                    "name": "spender",
                    "type": "address",
                    "internalType": "address"
                },
                {
                    "name": "value",
                    "type": "uint256",
                    "internalType": "uint256"
                }
            ],
            "outputs": [
                {
                    "name": "",
                    "type": "bool",
                    "internalType": "bool"
                }
            ],
            "stateMutability": "nonpayable"
        },
        {
            "type": "function",
            "name": "balanceOf",
            "inputs": [
                {
                    "name": "account",
                    "type": "address",
                    "internalType": "address"
                }
            ],
            "outputs": [
                {
                    "name": "",
                    "type": "uint256",
                    "internalType": "uint256"
                }
            ],
            "stateMutability": "view"
        },
        {
            "type": "function",
            "name": "burn",
            "inputs": [
                {
                    "name": "value",
                    "type": "uint256",
                    "internalType": "uint256"
                }
            ],
            "outputs": [],
            "stateMutability": "nonpayable"
        },
        {
            "type": "function",
            "name": "burnFrom",
            "inputs": [
                {
                    "name": "from",
                    "type": "address",
                    "internalType": "address"
                },
                {
                    "name": "amount",
                    "type": "uint256",
                    "internalType": "uint256"
                }
            ],
            "outputs": [],
            "stateMutability": "nonpayable"
        },
        {
            "type": "function",
            "name": "decimals",
            "inputs": [],
            "outputs": [
                {
                    "name": "",
                    "type": "uint8",
                    "internalType": "uint8"
                }
            ],
            "stateMutability": "view"
        },
        {
            "type": "function",
            "name": "getRoleAdmin",
            "inputs": [
                {
                    "name": "role",
                    "type": "bytes32",
                    "internalType": "bytes32"
                }
            ],
            "outputs": [
                {
                    "name": "",
                    "type": "bytes32",
                    "internalType": "bytes32"
                }
            ],
            "stateMutability": "view"
        },
        {
            "type": "function",
            "name": "grantRole",
            "inputs": [
                {
                    "name": "role",
                    "type": "bytes32",
                    "internalType": "bytes32"
                },
                {
                    "name": "account",
                    "type": "address",
                    "internalType": "address"
                }
            ],
            "outputs": [],
            "stateMutability": "nonpayable"
        },
        {
            "type": "function",
            "name": "hasRole",
            "inputs": [
                {
                    "name": "role",
                    "type": "bytes32",
                    "internalType": "bytes32"
                },
                {
                    "name": "account",
                    "type": "address",
                    "internalType": "address"
                }
            ],
            "outputs": [
                {
                    "name": "",
                    "type": "bool",
                    "internalType": "bool"
                }
            ],
            "stateMutability": "view"
        },
        {
            "type": "function",
            "name": "initialize",
            "inputs": [
                {
                    "name": "_owner",
                    "type": "address",
                    "internalType": "address"
                },
                {
                    "name": "minters",
                    "type": "address[]",
                    "internalType": "address[]"
                },
                {
                    "name": "name",
                    "type": "string",
                    "internalType": "string"
                },
                {
                    "name": "symbol",
                    "type": "string",
                    "internalType": "string"
                }
            ],
            "outputs": [],
            "stateMutability": "nonpayable"
        },
        {
            "type": "function",
            "name": "mint",
            "inputs": [
                {
                    "name": "to",
                    "type": "address",
                    "internalType": "address"
                },
                {
                    "name": "amount",
                    "type": "uint256",
                    "internalType": "uint256"
                }
            ],
            "outputs": [],
            "stateMutability": "nonpayable"
        },
        {
            "type": "function",
            "name": "name",
            "inputs": [],
            "outputs": [
                {
                    "name": "",
                    "type": "string",
                    "internalType": "string"
                }
            ],
            "stateMutability": "view"
        },
        {
            "type": "function",
            "name": "owner",
            "inputs": [],
            "outputs": [
                {
                    "name": "",
                    "type": "address",
                    "internalType": "address"
                }
            ],
            "stateMutability": "view"
        },
        {
            "type": "function",
            "name": "pause",
            "inputs": [],
            "outputs": [],
            "stateMutability": "nonpayable"
        },
        {
            "type": "function",
            "name": "paused",
            "inputs": [],
            "outputs": [
                {
                    "name": "",
                    "type": "bool",
                    "internalType": "bool"
                }
            ],
            "stateMutability": "view"
        },
        {
            "type": "function",
            "name": "proxiableUUID",
            "inputs": [],
            "outputs": [
                {
                    "name": "",
                    "type": "bytes32",
                    "internalType": "bytes32"
                }
            ],
            "stateMutability": "view"
        },
        {
            "type": "function",
            "name": "renounceOwnership",
            "inputs": [],
            "outputs": [],
            "stateMutability": "nonpayable"
        },
        {
            "type": "function",
            "name": "renounceRole",
            "inputs": [
                {
                    "name": "role",
                    "type": "bytes32",
                    "internalType": "bytes32"
                },
                {
                    "name": "callerConfirmation",
                    "type": "address",
                    "internalType": "address"
                }
            ],
            "outputs": [],
            "stateMutability": "nonpayable"
        },
        {
            "type": "function",
            "name": "revokeRole",
            "inputs": [
                {
                    "name": "role",
                    "type": "bytes32",
                    "internalType": "bytes32"
                },
                {
                    "name": "account",
                    "type": "address",
                    "internalType": "address"
                }
            ],
            "outputs": [],
            "stateMutability": "nonpayable"
        },
        {
            "type": "function",
            "name": "supportsInterface",
            "inputs": [
                {
                    "name": "interfaceId",
                    "type": "bytes4",
                    "internalType": "bytes4"
                }
            ],
            "outputs": [
                {
                    "name": "",
                    "type": "bool",
                    "internalType": "bool"
                }
            ],
            "stateMutability": "view"
        },
        {
            "type": "function",
            "name": "symbol",
            "inputs": [],
            "outputs": [
                {
                    "name": "",
                    "type": "string",
                    "internalType": "string"
                }
            ],
            "stateMutability": "view"
        },
        {
            "type": "function",
            "name": "totalSupply",
            "inputs": [],
            "outputs": [
                {
                    "name": "",
                    "type": "uint256",
                    "internalType": "uint256"
                }
            ],
            "stateMutability": "view"
        },
        {
            "type": "function",
            "name": "transfer",
            "inputs": [
                {
                    "name": "to",
                    "type": "address",
                    "internalType": "address"
                },
                {
                    "name": "value",
                    "type": "uint256",
                    "internalType": "uint256"
                }
            ],
            "outputs": [
                {
                    "name": "",
                    "type": "bool",
                    "internalType": "bool"
                }
            ],
            "stateMutability": "nonpayable"
        },
        {
            "type": "function",
            "name": "transferFrom",
            "inputs": [
                {
                    "name": "from",
                    "type": "address",
                    "internalType": "address"
                },
                {
                    "name": "to",
                    "type": "address",
                    "internalType": "address"
                },
                {
                    "name": "value",
                    "type": "uint256",
                    "internalType": "uint256"
                }
            ],
            "outputs": [
                {
                    "name": "",
                    "type": "bool",
                    "internalType": "bool"
                }
            ],
            "stateMutability": "nonpayable"
        },
        {
            "type": "function",
            "name": "transferOwnership",
            "inputs": [
                {
                    "name": "newOwner",
                    "type": "address",
                    "internalType": "address"
                }
            ],
            "outputs": [],
            "stateMutability": "nonpayable"
        },
        {
            "type": "function",
            "name": "unpause",
            "inputs": [],
            "outputs": [],
            "stateMutability": "nonpayable"
        },
        {
            "type": "function",
            "name": "upgradeToAndCall",
            "inputs": [
                {
                    "name": "newImplementation",
                    "type": "address",
                    "internalType": "address"
                },
                {
                    "name": "data",
                    "type": "bytes",
                    "internalType": "bytes"
                }
            ],
            "outputs": [],
            "stateMutability": "payable"
        },
        {
            "type": "event",
            "name": "Approval",
            "inputs": [
                {
                    "name": "owner",
                    "type": "address",
                    "indexed": true,
                    "internalType": "address"
                },
                {
                    "name": "spender",
                    "type": "address",
                    "indexed": true,
                    "internalType": "address"
                },
                {
                    "name": "value",
                    "type": "uint256",
                    "indexed": false,
                    "internalType": "uint256"
                }
            ],
            "anonymous": false
        },
        {
            "type": "event",
            "name": "Initialized",
            "inputs": [
                {
                    "name": "version",
                    "type": "uint64",
                    "indexed": false,
                    "internalType": "uint64"
                }
            ],
            "anonymous": false
        },
        {
            "type": "event",
            "name": "OwnershipTransferred",
            "inputs": [
                {
                    "name": "previousOwner",
                    "type": "address",
                    "indexed": true,
                    "internalType": "address"
                },
                {
                    "name": "newOwner",
                    "type": "address",
                    "indexed": true,
                    "internalType": "address"
                }
            ],
            "anonymous": false
        },
        {
            "type": "event",
            "name": "Paused",
            "inputs": [
                {
                    "name": "account",
                    "type": "address",
                    "indexed": false,
                    "internalType": "address"
                }
            ],
            "anonymous": false
        },
        {
            "type": "event",
            "name": "RoleAdminChanged",
            "inputs": [
                {
                    "name": "role",
                    "type": "bytes32",
                    "indexed": true,
                    "internalType": "bytes32"
                },
                {
                    "name": "previousAdminRole",
                    "type": "bytes32",
                    "indexed": true,
                    "internalType": "bytes32"
                },
                {
                    "name": "newAdminRole",
                    "type": "bytes32",
                    "indexed": true,
                    "internalType": "bytes32"
                }
            ],
            "anonymous": false
        },
        {
            "type": "event",
            "name": "RoleGranted",
            "inputs": [
                {
                    "name": "role",
                    "type": "bytes32",
                    "indexed": true,
                    "internalType": "bytes32"
                },
                {
                    "name": "account",
                    "type": "address",
                    "indexed": true,
                    "internalType": "address"
                },
                {
                    "name": "sender",
                    "type": "address",
                    "indexed": true,
                    "internalType": "address"
                }
            ],
            "anonymous": false
        },
        {
            "type": "event",
            "name": "RoleRevoked",
            "inputs": [
                {
                    "name": "role",
                    "type": "bytes32",
                    "indexed": true,
                    "internalType": "bytes32"
                },
                {
                    "name": "account",
                    "type": "address",
                    "indexed": true,
                    "internalType": "address"
                },
                {
                    "name": "sender",
                    "type": "address",
                    "indexed": true,
                    "internalType": "address"
                }
            ],
            "anonymous": false
        },
        {
            "type": "event",
            "name": "Transfer",
            "inputs": [
                {
                    "name": "from",
                    "type": "address",
                    "indexed": true,
                    "internalType": "address"
                },
                {
                    "name": "to",
                    "type": "address",
                    "indexed": true,
                    "internalType": "address"
                },
                {
                    "name": "value",
                    "type": "uint256",
                    "indexed": false,
                    "internalType": "uint256"
                }
            ],
            "anonymous": false
        },
        {
            "type": "event",
            "name": "Unpaused",
            "inputs": [
                {
                    "name": "account",
                    "type": "address",
                    "indexed": false,
                    "internalType": "address"
                }
            ],
            "anonymous": false
        },
        {
            "type": "event",
            "name": "Upgraded",
            "inputs": [
                {
                    "name": "implementation",
                    "type": "address",
                    "indexed": true,
                    "internalType": "address"
                }
            ],
            "anonymous": false
        },
        {
            "type": "error",
            "name": "AccessControlBadConfirmation",
            "inputs": []
        },
        {
            "type": "error",
            "name": "AccessControlUnauthorizedAccount",
            "inputs": [
                {
                    "name": "account",
                    "type": "address",
                    "internalType": "address"
                },
                {
                    "name": "neededRole",
                    "type": "bytes32",
                    "internalType": "bytes32"
                }
            ]
        },
        {
            "type": "error",
            "name": "AddressEmptyCode",
            "inputs": [
                {
                    "name": "target",
                    "type": "address",
                    "internalType": "address"
                }
            ]
        },
        {
            "type": "error",
            "name": "ERC1967InvalidImplementation",
            "inputs": [
                {
                    "name": "implementation",
                    "type": "address",
                    "internalType": "address"
                }
            ]
        },
        {
            "type": "error",
            "name": "ERC1967NonPayable",
            "inputs": []
        },
        {
            "type": "error",
            "name": "ERC20InsufficientAllowance",
            "inputs": [
                {
                    "name": "spender",
                    "type": "address",
                    "internalType": "address"
                },
                {
                    "name": "allowance",
                    "type": "uint256",
                    "internalType": "uint256"
                },
                {
                    "name": "needed",
                    "type": "uint256",
                    "internalType": "uint256"
                }
            ]
        },
        {
            "type": "error",
            "name": "ERC20InsufficientBalance",
            "inputs": [
                {
                    "name": "sender",
                    "type": "address",
                    "internalType": "address"
                },
                {
                    "name": "balance",
                    "type": "uint256",
                    "internalType": "uint256"
                },
                {
                    "name": "needed",
                    "type": "uint256",
                    "internalType": "uint256"
                }
            ]
        },
        {
            "type": "error",
            "name": "ERC20InvalidApprover",
            "inputs": [
                {
                    "name": "approver",
                    "type": "address",
                    "internalType": "address"
                }
            ]
        },
        {
            "type": "error",
            "name": "ERC20InvalidReceiver",
            "inputs": [
                {
                    "name": "receiver",
                    "type": "address",
                    "internalType": "address"
                }
            ]
        },
        {
            "type": "error",
            "name": "ERC20InvalidSender",
            "inputs": [
                {
                    "name": "sender",
                    "type": "address",
                    "internalType": "address"
                }
            ]
        },
        {
            "type": "error",
            "name": "ERC20InvalidSpender",
            "inputs": [
                {
                    "name": "spender",
                    "type": "address",
                    "internalType": "address"
                }
            ]
        },
        {
            "type": "error",
            "name": "EnforcedPause",
            "inputs": []
        },
        {
            "type": "error",
            "name": "ExpectedPause",
            "inputs": []
        },
        {
            "type": "error",
            "name": "FailedCall",
            "inputs": []
        },
        {
            "type": "error",
            "name": "InvalidInitialization",
            "inputs": []
        },
        {
            "type": "error",
            "name": "MustHaveBurnerRole",
            "inputs": [
                {
                    "name": "account",
                    "type": "address",
                    "internalType": "address"
                }
            ]
        },
        {
            "type": "error",
            "name": "MustHaveMinterRole",
            "inputs": [
                {
                    "name": "account",
                    "type": "address",
                    "internalType": "address"
                }
            ]
        },
        {
            "type": "error",
            "name": "NotInitializing",
            "inputs": []
        },
        {
            "type": "error",
            "name": "OwnableInvalidOwner",
            "inputs": [
                {
                    "name": "owner",
                    "type": "address",
                    "internalType": "address"
                }
            ]
        },
        {
            "type": "error",
            "name": "OwnableUnauthorizedAccount",
            "inputs": [
                {
                    "name": "account",
                    "type": "address",
                    "internalType": "address"
                }
            ]
        },
        {
            "type": "error",
            "name": "UUPSUnauthorizedCallContext",
            "inputs": []
        },
        {
            "type": "error",
            "name": "UUPSUnsupportedProxiableUUID",
            "inputs": [
                {
                    "name": "slot",
                    "type": "bytes32",
                    "internalType": "bytes32"
                }
            ]
        }
    ],
    "bytecode": {
        "object": "0x60a060405230608052348015610013575f80fd5b50608051611d5f61003a5f395f8181610e8d01528181610eb60152610ff50152611d5f5ff3fe6080604052600436106101db575f3560e01c806370a08231116100fd578063a9059cbb11610092578063d547741f11610062578063d547741f14610586578063dd62ed3e146105a5578063e63ab1e9146105c4578063f2fde38b146105e4575f80fd5b8063a9059cbb146104f8578063ad3cb1cc14610517578063c1abece914610547578063d539139314610566575f80fd5b80638da5cb5b116100cd5780638da5cb5b1461046c57806391d14854146104b257806395d89b41146104d1578063a217fddf146104e5575f80fd5b806370a08231146103e5578063715018a61461042557806379cc6790146104395780638456cb5914610458575f80fd5b8063313ce5671161017357806342966c681161014357806342966c681461037c5780634f1ef2861461039b57806352d1902d146103ae5780635c975abb146103c2575f80fd5b8063313ce5671461030f57806336568abe1461032a5780633f4ba83a1461034957806340c10f191461035d575f80fd5b806323b872dd116101ae57806323b872dd14610290578063248a9ca3146102af578063282c51f3146102ce5780632f2ff15d146102ee575f80fd5b806301ffc9a7146101df57806306fdde0314610213578063095ea7b31461023457806318160ddd14610253575b5f80fd5b3480156101ea575f80fd5b506101fe6101f936600461171b565b610603565b60405190151581526020015b60405180910390f35b34801561021e575f80fd5b50610227610639565b60405161020a9190611764565b34801561023f575f80fd5b506101fe61024e3660046117b1565b6106f9565b34801561025e575f80fd5b507f52c63247e1f47db19d5ce0460030c497f067ca4cebf71ba98eeadabe20bace02545b60405190815260200161020a565b34801561029b575f80fd5b506101fe6102aa3660046117d9565b610710565b3480156102ba575f80fd5b506102826102c9366004611812565b610735565b3480156102d9575f80fd5b506102825f80516020611c4a83398151915281565b3480156102f9575f80fd5b5061030d610308366004611829565b610755565b005b34801561031a575f80fd5b506040516006815260200161020a565b348015610335575f80fd5b5061030d610344366004611829565b610777565b348015610354575f80fd5b5061030d6107af565b348015610368575f80fd5b5061030d6103773660046117b1565b6107d1565b348015610387575f80fd5b5061030d610396366004611812565b61081a565b61030d6103a93660046118ed565b610824565b3480156103b9575f80fd5b5061028261083f565b3480156103cd575f80fd5b505f80516020611d0a8339815191525460ff166101fe565b3480156103f0575f80fd5b506102826103ff36600461194b565b6001600160a01b03165f9081525f80516020611c6a833981519152602052604090205490565b348015610430575f80fd5b5061030d61085a565b348015610444575f80fd5b5061030d6104533660046117b1565b61086d565b348015610463575f80fd5b5061030d6108ad565b348015610477575f80fd5b507f9016d09d72d40fdae2fd8ceac6b6234c7706214fd39c1cd1e609a0528c199300546040516001600160a01b03909116815260200161020a565b3480156104bd575f80fd5b506101fe6104cc366004611829565b6108cc565b3480156104dc575f80fd5b50610227610902565b3480156104f0575f80fd5b506102825f81565b348015610503575f80fd5b506101fe6105123660046117b1565b610940565b348015610522575f80fd5b50610227604051806040016040528060058152602001640352e302e360dc1b81525081565b348015610552575f80fd5b5061030d610561366004611982565b61094d565b348015610571575f80fd5b506102825f80516020611cca83398151915281565b348015610591575f80fd5b5061030d6105a0366004611829565b610b31565b3480156105b0575f80fd5b506102826105bf366004611a80565b610b4d565b3480156105cf575f80fd5b506102825f80516020611caa83398151915281565b3480156105ef575f80fd5b5061030d6105fe36600461194b565b610b96565b5f6001600160e01b03198216637965db0b60e01b148061063357506301ffc9a760e01b6001600160e01b03198316145b92915050565b7f52c63247e1f47db19d5ce0460030c497f067ca4cebf71ba98eeadabe20bace0380546060915f80516020611c6a8339815191529161067790611aa8565b80601f01602080910402602001604051908101604052809291908181526020018280546106a390611aa8565b80156106ee5780601f106106c5576101008083540402835291602001916106ee565b820191905f5260205f20905b8154815290600101906020018083116106d157829003601f168201915b505050505091505090565b5f33610706818585610bd0565b5060019392505050565b5f3361071d858285610bdd565b610728858585610c3a565b60019150505b9392505050565b5f9081525f80516020611cea833981519152602052604090206001015490565b61075e82610735565b61076781610c97565b6107718383610ca1565b50505050565b6001600160a01b03811633146107a05760405163334bd91960e11b815260040160405180910390fd5b6107aa8282610d42565b505050565b5f80516020611caa8339815191526107c681610c97565b6107ce610dbb565b50565b6107e85f80516020611cca833981519152336108cc565b61080c57604051636690b7c160e01b81523360048201526024015b60405180910390fd5b6108168282610e1a565b5050565b6107ce3382610e4e565b61082c610e82565b61083582610f26565b6108168282610f2e565b5f610848610fea565b505f80516020611c8a83398151915290565b610862611033565b61086b5f61108e565b565b6108845f80516020611c4a833981519152336108cc565b6108a35760405163a83d83d160e01b8152336004820152602401610803565b6108168282610e4e565b5f80516020611caa8339815191526108c481610c97565b6107ce6110fe565b5f9182525f80516020611cea833981519152602090815260408084206001600160a01b0393909316845291905290205460ff1690565b7f52c63247e1f47db19d5ce0460030c497f067ca4cebf71ba98eeadabe20bace0480546060915f80516020611c6a8339815191529161067790611aa8565b5f33610706818585610c3a565b7ff0c57e16840df040f15088dc2f81fe391c3923bec73e23a9662efc9c229c6a008054600160401b810460ff16159067ffffffffffffffff165f811580156109925750825b90505f8267ffffffffffffffff1660011480156109ae5750303b155b9050811580156109bc575080155b156109da5760405163f92ee8a960e01b815260040160405180910390fd5b845467ffffffffffffffff191660011785558315610a0457845460ff60401b1916600160401b1785555b610a0e8787611146565b610a1789611158565b610a1f611169565b610a27611169565b610a315f8a610ca1565b50610a495f80516020611cca8339815191525f611171565b610a605f80516020611c4a8339815191525f611171565b610a775f80516020611caa8339815191525f611171565b5f5b8851811015610adf57610ab25f80516020611cca8339815191528a8381518110610aa557610aa5611ae0565b6020026020010151610ca1565b50610ad65f80516020611c4a8339815191528a8381518110610aa557610aa5611ae0565b50600101610a79565b508315610b2657845460ff60401b19168555604051600181527fc7f505b2f371ae2175ee4913f4499e1f2633a7b5936321eed1cdaeb6115181d29060200160405180910390a15b505050505050505050565b610b3a82610735565b610b4381610c97565b6107718383610d42565b6001600160a01b039182165f9081527f52c63247e1f47db19d5ce0460030c497f067ca4cebf71ba98eeadabe20bace016020908152604080832093909416825291909152205490565b610b9e611033565b6001600160a01b038116610bc757604051631e4fbdf760e01b81525f6004820152602401610803565b6107ce8161108e565b6107aa83838360016111d1565b5f610be88484610b4d565b90505f1981146107715781811015610c2c57604051637dc7a0d960e11b81526001600160a01b03841660048201526024810182905260448101839052606401610803565b61077184848484035f6111d1565b6001600160a01b038316610c6357604051634b637e8f60e11b81525f6004820152602401610803565b6001600160a01b038216610c8c5760405163ec442f0560e01b81525f6004820152602401610803565b6107aa8383836112b5565b6107ce81336112c8565b5f5f80516020611cea833981519152610cba84846108cc565b610d39575f848152602082815260408083206001600160a01b03871684529091529020805460ff19166001179055610cef3390565b6001600160a01b0316836001600160a01b0316857f2f8788117e7eff1d82e926ec794901d17c78024a50270940304540a733656f0d60405160405180910390a46001915050610633565b5f915050610633565b5f5f80516020611cea833981519152610d5b84846108cc565b15610d39575f848152602082815260408083206001600160a01b0387168085529252808320805460ff1916905551339287917ff6391f5c32d9c69d2a47ea670b442974b53935d1edc7fd64eb21e047a839171b9190a46001915050610633565b610dc3611301565b5f80516020611d0a833981519152805460ff191681557f5db9ee0a495bf2e6ff9c91a7834c1ba4fdd244a5e8aa4e537bd38aeae4b073aa335b6040516001600160a01b03909116815260200160405180910390a150565b6001600160a01b038216610e435760405163ec442f0560e01b81525f6004820152602401610803565b6108165f83836112b5565b6001600160a01b038216610e7757604051634b637e8f60e11b81525f6004820152602401610803565b610816825f836112b5565b306001600160a01b037f0000000000000000000000000000000000000000000000000000000000000000161480610f0857507f00000000000000000000000000000000000000000000000000000000000000006001600160a01b0316610efc5f80516020611c8a833981519152546001600160a01b031690565b6001600160a01b031614155b1561086b5760405163703e46dd60e11b815260040160405180910390fd5b6107ce611033565b816001600160a01b03166352d1902d6040518163ffffffff1660e01b8152600401602060405180830381865afa925050508015610f88575060408051601f3d908101601f19168201909252610f8591810190611af4565b60015b610fb057604051634c9c8ce360e01b81526001600160a01b0383166004820152602401610803565b5f80516020611c8a8339815191528114610fe057604051632a87526960e21b815260048101829052602401610803565b6107aa8383611330565b306001600160a01b037f0000000000000000000000000000000000000000000000000000000000000000161461086b5760405163703e46dd60e11b815260040160405180910390fd5b336110657f9016d09d72d40fdae2fd8ceac6b6234c7706214fd39c1cd1e609a0528c199300546001600160a01b031690565b6001600160a01b03161461086b5760405163118cdaa760e01b8152336004820152602401610803565b7f9016d09d72d40fdae2fd8ceac6b6234c7706214fd39c1cd1e609a0528c19930080546001600160a01b031981166001600160a01b03848116918217845560405192169182907f8be0079c531659141344cd1fd0a4f28419497f9722a3daafe3b4186f6b6457e0905f90a3505050565b611106611385565b5f80516020611d0a833981519152805460ff191660011781557f62e78cea01bee320cd4e420270b5ea74000d11b0c9f74754ebdbfc544b05a25833610dfc565b61114e6113b5565b61081682826113fe565b6111606113b5565b6107ce8161144e565b61086b6113b5565b5f80516020611cea8339815191525f61118984610735565b5f85815260208490526040808220600101869055519192508491839187917fbd79b86ffe0ab8e8776151514217cd7cacd52c909f66475c3af44e129f0b00ff9190a450505050565b5f80516020611c6a8339815191526001600160a01b0385166112085760405163e602df0560e01b81525f6004820152602401610803565b6001600160a01b03841661123157604051634a1406b160e11b81525f6004820152602401610803565b6001600160a01b038086165f908152600183016020908152604080832093881683529290522083905581156112ae57836001600160a01b0316856001600160a01b03167f8c5be1e5ebec7d5bd14f71427d1e84f3dd0314c0f7b2291e5b200ac8c7c3b925856040516112a591815260200190565b60405180910390a35b5050505050565b6112bd611385565b6107aa838383611456565b6112d282826108cc565b6108165760405163e2517d3f60e01b81526001600160a01b038216600482015260248101839052604401610803565b5f80516020611d0a8339815191525460ff1661086b57604051638dfc202b60e01b815260040160405180910390fd5b61133982611469565b6040516001600160a01b038316907fbc7cd75a20ee27fd9adebab32041f755214dbc6bffa90cc0225b39da2e5c2d3b905f90a280511561137d576107aa82826114cc565b61081661153e565b5f80516020611d0a8339815191525460ff161561086b5760405163d93c066560e01b815260040160405180910390fd5b7ff0c57e16840df040f15088dc2f81fe391c3923bec73e23a9662efc9c229c6a0054600160401b900460ff1661086b57604051631afcd79f60e31b815260040160405180910390fd5b6114066113b5565b5f80516020611c6a8339815191527f52c63247e1f47db19d5ce0460030c497f067ca4cebf71ba98eeadabe20bace0361143f8482611b4f565b50600481016107718382611b4f565b610b9e6113b5565b61145e611385565b6107aa83838361155d565b806001600160a01b03163b5f0361149e57604051634c9c8ce360e01b81526001600160a01b0382166004820152602401610803565b5f80516020611c8a83398151915280546001600160a01b0319166001600160a01b0392909216919091179055565b60605f80846001600160a01b0316846040516114e89190611c0f565b5f60405180830381855af49150503d805f8114611520576040519150601f19603f3d011682016040523d82523d5f602084013e611525565b606091505b5091509150611535858383611696565b95945050505050565b341561086b5760405163b398979f60e01b815260040160405180910390fd5b5f80516020611c6a8339815191526001600160a01b0384166115975781816002015f82825461158c9190611c2a565b909155506116079050565b6001600160a01b0384165f90815260208290526040902054828110156115e95760405163391434e360e21b81526001600160a01b03861660048201526024810182905260448101849052606401610803565b6001600160a01b0385165f9081526020839052604090209083900390555b6001600160a01b038316611625576002810180548390039055611643565b6001600160a01b0383165f9081526020829052604090208054830190555b826001600160a01b0316846001600160a01b03167fddf252ad1be2c89b69c2b068fc378daa952ba7f163c4a11628f55a4df523b3ef8460405161168891815260200190565b60405180910390a350505050565b6060826116ab576116a6826116f2565b61072e565b81511580156116c257506001600160a01b0384163b155b156116eb57604051639996b31560e01b81526001600160a01b0385166004820152602401610803565b508061072e565b8051156117025780518082602001fd5b60405163d6bda27560e01b815260040160405180910390fd5b5f6020828403121561172b575f80fd5b81356001600160e01b03198116811461072e575f80fd5b5f5b8381101561175c578181015183820152602001611744565b50505f910152565b602081525f8251806020840152611782816040850160208701611742565b601f01601f19169190910160400192915050565b80356001600160a01b03811681146117ac575f80fd5b919050565b5f80604083850312156117c2575f80fd5b6117cb83611796565b946020939093013593505050565b5f805f606084860312156117eb575f80fd5b6117f484611796565b925061180260208501611796565b9150604084013590509250925092565b5f60208284031215611822575f80fd5b5035919050565b5f806040838503121561183a575f80fd5b8235915061184a60208401611796565b90509250929050565b634e487b7160e01b5f52604160045260245ffd5b604051601f8201601f1916810167ffffffffffffffff8111828210171561189057611890611853565b604052919050565b5f67ffffffffffffffff8311156118b1576118b1611853565b6118c4601f8401601f1916602001611867565b90508281528383830111156118d7575f80fd5b828260208301375f602084830101529392505050565b5f80604083850312156118fe575f80fd5b61190783611796565b9150602083013567ffffffffffffffff811115611922575f80fd5b8301601f81018513611932575f80fd5b61194185823560208401611898565b9150509250929050565b5f6020828403121561195b575f80fd5b61072e82611796565b5f82601f830112611973575f80fd5b61072e83833560208501611898565b5f805f8060808587031215611995575f80fd5b61199e85611796565b935060208086013567ffffffffffffffff808211156119bb575f80fd5b818801915088601f8301126119ce575f80fd5b8135818111156119e0576119e0611853565b8060051b6119ef858201611867565b918252838101850191858101908c841115611a08575f80fd5b948601945b83861015611a2d57611a1e86611796565b82529486019490860190611a0d565b98505050506040880135925080831115611a45575f80fd5b611a5189848a01611964565b94506060880135925080831115611a66575f80fd5b5050611a7487828801611964565b91505092959194509250565b5f8060408385031215611a91575f80fd5b611a9a83611796565b915061184a60208401611796565b600181811c90821680611abc57607f821691505b602082108103611ada57634e487b7160e01b5f52602260045260245ffd5b50919050565b634e487b7160e01b5f52603260045260245ffd5b5f60208284031215611b04575f80fd5b5051919050565b601f8211156107aa57805f5260205f20601f840160051c81016020851015611b305750805b601f840160051c820191505b818110156112ae575f8155600101611b3c565b815167ffffffffffffffff811115611b6957611b69611853565b611b7d81611b778454611aa8565b84611b0b565b602080601f831160018114611bb0575f8415611b995750858301515b5f19600386901b1c1916600185901b178555611c07565b5f85815260208120601f198616915b82811015611bde57888601518255948401946001909101908401611bbf565b5085821015611bfb57878501515f19600388901b60f8161c191681555b505060018460011b0185555b505050505050565b5f8251611c20818460208701611742565b9190910192915050565b8082018082111561063357634e487b7160e01b5f52601160045260245ffdfe3c11d16cbaffd01df69ce1c404f6340ee057498f5f00246190ea54220576a84852c63247e1f47db19d5ce0460030c497f067ca4cebf71ba98eeadabe20bace00360894a13ba1a3210667c828492db98dca3e2076cc3735a920a3ca505d382bbc65d7a28e3265b37a6474929f336521b332c1681b933f6cb9f3376673440d862a9f2df0fed2c77648de5860a4cc508cd0818c85b8b8a1ab4ceeef8d981c8956a602dd7bc7dec4dceedda775e58dd541e08a116c6c53815c0bd028192f7b626800cd5ed15c6e187e77e9aee88184c21f4f2182ab5827cb3b7e07fbedcd63f03300a2646970667358221220fa2918eed093ee2742e264d494fc7575640cd91d22b96c0ff829f852119117ab64736f6c63430008160033",
        "linkReferences": {}
    },
    "methodIdentifiers": {
        "BURNER_ROLE()": "282c51f3",
        "DEFAULT_ADMIN_ROLE()": "a217fddf",
        "MINTER_ROLE()": "d5391393",
        "PAUSER_ROLE()": "e63ab1e9",
        "UPGRADE_INTERFACE_VERSION()": "ad3cb1cc",
        "allowance(address,address)": "dd62ed3e",
        "approve(address,uint256)": "095ea7b3",
        "balanceOf(address)": "70a08231",
        "burn(uint256)": "42966c68",
        "burnFrom(address,uint256)": "79cc6790",
        "decimals()": "313ce567",
        "getRoleAdmin(bytes32)": "248a9ca3",
        "grantRole(bytes32,address)": "2f2ff15d",
        "hasRole(bytes32,address)": "91d14854",
        "initialize(address,address[],string,string)": "c1abece9",
        "mint(address,uint256)": "40c10f19",
        "name()": "06fdde03",
        "owner()": "8da5cb5b",
        "pause()": "8456cb59",
        "paused()": "5c975abb",
        "proxiableUUID()": "52d1902d",
        "renounceOwnership()": "715018a6",
        "renounceRole(bytes32,address)": "36568abe",
        "revokeRole(bytes32,address)": "d547741f",
        "supportsInterface(bytes4)": "01ffc9a7",
        "symbol()": "95d89b41",
        "totalSupply()": "18160ddd",
        "transfer(address,uint256)": "a9059cbb",
        "transferFrom(address,address,uint256)": "23b872dd",
        "transferOwnership(address)": "f2fde38b",
        "unpause()": "3f4ba83a",
        "upgradeToAndCall(address,bytes)": "4f1ef286"
    },
    "storageLayout": {
        "storage": [],
        "types": {}
    },
    "id": 48
}